:020000024000BC
:1080000058E5022019630500BFF606000563050068
:1080100005630500056305000563050005630500AC
:10802000000000000000000000000000F1640500F6
:1080300005630500000000004564050005630500B8
:10804000016705000167050001670500016705007C
:10805000016705000167050001670500016705006C
:10806000016705000167050001670500016705005C
:10807000016705000167050001670500016705004C
:10808000016705000167050001670500016705003C
:10809000016705000167050001670500016705002C
:1080A000016705000167050001670500016705001C
:1080B000016705000167050001670500016705000C
:1080C00001670500016705000167050001670500FC
:1080D00001670500016705000167050001670500EC
:1080E00001670500016705000167050001670500DC
:1080F00001670500016705000167050001670500CC
:1081000001670500016705000167050001670500BB
:1081100001670500016705000167050001670500AB
:10812000016705000167050001670500016705009B
:10813000016705000167050001670500016705008B
:1081400001670500000000000000000000000000C2
:10815000000000000000000000000000000000001F
:10816000000000000000000000000000000000000F
:1081700000000000000000000000000000000000FF
:1081800000000000000000000000000000000000EF
:1081900000000000000000000000000000000000DF
:1081A00000000000000000000000000000000000CF
:1081B00000000000000000000000000000000000BF
:1081C00000000000000000000000000000000000AF
:1081D000000000000000000000000000000000009F
:1081E000000000000000000000000000000000008F
:1081F000000000000000000000000000000000007F
:10820000DEE61E284CBBCE8F025B00003C00000067
:1082100038E1030001000000008004000080040039
:10822000FFFF0291000000000000000000000000BD
:0C82300000000000000000000000000042
:1082400081F0004102E000BF83F0004330B54FEA07
:1082500041044FEA430594EA050F08BF90EA020F74
:108260001FBF54EA000C55EA020C7FEA645C7FEA07
:10827000655C00F0E2804FEA5454D4EB5555B8BF2A
:108280006D420CDD2C4480EA020281EA030382EA9B
:10829000000083EA010180EA020281EA0303362D2D
:1082A00088BF30BD11F0004F4FEA01314FF4801C00
:1082B0004CEA113102D0404261EB410113F0004F12
:1082C0004FEA03334CEA133302D0524263EB4303C9
:1082D00094EA050F00F0A780A4F10104D5F1200E67
:1082E0000DDB02FA0EFC22FA05F2801841F10001C2
:1082F00003FA0EF2801843FA05F359410EE0A5F196
:1083000020050EF1200E012A03FA0EFC28BF4CF0C6
:10831000020C43FA05F3C01851EBE37101F000457C
:1083200007D54FF0000EDCF1000C7EEB00006EEB89
:108330000101B1F5801F1BD3B1F5001F0CD3490813
:108340005FEA30004FEA3C0C04F101044FEA44526A
:1083500012F5800F80F09A80BCF1004F08BF5FEAF1
:10836000500C50F1000041EB045141EA050130BDD1
:108370005FEA4C0C404141EB0101013C28BFB1F5E3
:10838000801FE9D291F0000F04BF01460020B1FA2E
:1083900081F308BF2033A3F10B03B3F120020CDA01
:1083A0000C3208DD02F1140CC2F10C0201FA0CF0DF
:1083B00021FA02F10CE002F11402D8BFC2F1200C44
:1083C00001FA02F120FA0CFCDCBF41EA0C019040FA
:1083D000E41AA2BF01EB0451294330BD6FEA040443
:1083E0001F3C1CDA0C340EDC04F11404C4F120022E
:1083F00020FA04F001FA02F340EA030021FA04F340
:1084000045EA030130BDC4F10C04C4F1200220FA96
:1084100002F001FA04F340EA0300294630BD21FAD4
:1084200004F0294630BD94F0000F83F4801306BF9A
:1084300081F480110134013D4EE77FEA645C18BF8E
:108440007FEA655C29D094EA050F08BF90EA020F25
:1084500005D054EA000C04BF1946104630BD91EA1D
:10846000030F1EBF0021002030BD5FEA545C05D120
:108470004000494128BF41F0004130BD14F580045F
:108480003CBF01F5801130BD01F0004545F0FE41D3
:1084900041F470014FF0000030BD7FEA645C1ABF08
:1084A000194610467FEA655C1CBF0B46024650EA3F
:1084B000013406BF52EA033591EA030F41F400216B
:1084C00030BD00BF90F0000F04BF0021704730B5F1
:1084D0004FF4806404F132044FF000054FF00001C6
:1084E00050E700BF90F0000F04BF0021704730B587
:1084F0004FF4806404F1320410F0004548BF40425C
:108500004FF000013EE700BF42004FEAE2014FEAB0
:1085100031014FEA02701FBF12F07F4393F07F4F8B
:1085200081F06051704732F07F4208BF704793F08E
:108530007F4F04BF41F40021704730B54FF46074A1
:1085400001F0004521F000411CE700BF50EA0102A4
:1085500008BF704730B54FF000050AE050EA01024D
:1085600008BF704730B511F0004502D5404261EBBD
:1085700041014FF4806404F132045FEA915C3FF4FE
:10858000D8AE4FF003025FEADC0C18BF03325FEA9B
:10859000DC0C18BF033202EBDC02C2F1200300FA4C
:1085A00003FC20FA02F001FA03FE40EA0E0021FA71
:1085B00002F11444BDE600BF70B54FF0FF0C4CF45F
:1085C000E06C1CEA11541DBF1CEA135594EA0C0F11
:1085D00095EA0C0F00F0DEF82C4481EA030621EA4C
:1085E0004C5123EA4C5350EA013518BF52EA033587
:1085F00041F4801143F4801338D0A0FB02CE4FF039
:108600000005E1FB02E506F00042E0FB03E54FF068
:108610000006E1FB03569CF0000F18BF4EF0010E60
:10862000A4F1FF04B6F5007F64F5407404D25FEA5C
:108630004E0E6D4146EB060642EAC62141EA55510F
:108640004FEAC52040EA5E504FEACE2EB4F1FD0C51
:1086500088BFBCF5E06F1ED8BEF1004F08BF5FEACF
:10866000500E50F1000041EB045170BD06F0004681
:1086700046EA010140EA020081EA0301B4EB5C042E
:10868000C2BFD4EB0C0541EA045170BD41F4801126
:108690004FF0000E013C00F3AB8014F1360FDEBF4B
:1086A000002001F0004170BDC4F10004203C35DA27
:1086B0000C341BDC04F11404C4F1200500FA05F3AA
:1086C00020FA04F001FA05F240EA020001F000424B
:1086D00021F0004110EBD37021FA04F642EB0601C1
:1086E0005EEA430E08BF20EAD37070BDC4F10C04EB
:1086F000C4F1200500FA04F320FA05F001FA04F2AF
:1087000040EA020001F0004110EBD37041F100019A
:108710005EEA430E08BF20EAD37070BDC4F12005A5
:1087200000FA05F24EEA020E20FA04F301FA05F20D
:1087300043EA020321FA04F001F0004121FA04F2B5
:1087400020EA020000EBD3705EEA430E08BF20EA85
:10875000D37070BD94F0000F0FD101F000464000BF
:1087600041EB010111F4801F08BF013CF7D041EA41
:10877000060195F0000F18BF704703F00046520045
:1087800043EB030313F4801F08BF013DF7D043EA16
:108790000603704794EA0C0F0CEA135518BF95EACC
:1087A0000C0F0CD050EA410618BF52EA4306D1D153
:1087B00081EA030101F000414FF0000070BD50EA72
:1087C000410606BF1046194652EA430619D094EAFC
:1087D0000C0F02D150EA013613D195EA0C0F05D1E6
:1087E00052EA03361CBF104619460AD181EA03013A
:1087F00001F0004141F0FE4141F470014FF00000F2
:1088000070BD41F0FE4141F4780170BD70B54FF08C
:10881000FF0C4CF4E06C1CEA11541DBF1CEA13550C
:1088200094EA0C0F95EA0C0F00F0A7F8A4EB0504EE
:1088300081EA030E52EA03354FEA013100F08880E5
:108840004FEA03334FF0805545EA131343EA1263AE
:108850004FEA022245EA111545EA10654FEA002663
:108860000EF000419D4208BF964244F1FD0404F51C
:10887000407402D25B084FEA3202B61A65EB030578
:108880005B084FEA32024FF480104FF4002CB6EB35
:10889000020E75EB030E22BFB61A754640EA0C00B5
:1088A0005B084FEA3202B6EB020E75EB030E22BFF5
:1088B000B61A754640EA5C005B084FEA3202B6EB36
:1088C000020E75EB030E22BFB61A754640EA9C00F5
:1088D0005B084FEA3202B6EB020E75EB030E22BFC5
:1088E000B61A754640EADC0055EA060E18D04FEA83
:1088F000051545EA16754FEA06164FEAC30343EA23
:1089000052734FEAC2025FEA1C1CC0D111F4801FEF
:108910000BD141EA00014FF000004FF0004CB6E7E8
:1089200011F4801F04BF01430020B4F1FD0C88BF87
:10893000BCF5E06F3FF6AFAEB5EB030C04BFB6EB92
:10894000020C5FEA500C50F1000041EB045170BD85
:108950000EF0004E4EEA113114EB5C04C2BFD4EBB2
:108960000C0541EA045170BD41F480114FF0000E36
:10897000013C90E645EA060E8DE60CEA135594EAB2
:108980000C0F08BF95EA0C0F3FF43BAF94EA0C0FB5
:108990000AD150EA01347FF434AF95EA0C0F7FF42A
:1089A00025AF104619462CE795EA0C0F06D152EA7E
:1089B00003353FF4FDAE1046194622E750EA410662
:1089C00018BF52EA43067FF4C5AE50EA41047FF473
:1089D0000DAF52EA43057FF4EBAE12E74FF0FF3CD8
:1089E00006E000BF4FF0010C02E000BF4FF0010CA9
:1089F0004DF804CD4FEA410C7FEA6C5C4FEA430C22
:108A000018BF7FEA6C5C1BD001B050EA410C0CBF70
:108A100052EA430C91EA030F02BF90EA020F0020D2
:108A2000704710F1000F91EA030F58BF994208BF39
:108A300090422CBFD8176FEAE37040F001007047F6
:108A40004FEA410C7FEA6C5C02D150EA013C07D14D
:108A50004FEA430C7FEA6C5CD6D152EA033CD3D098
:108A60005DF8040B704700BF8446104662468C4692
:108A70001946634600E000BF01B5FFF7B7FF0028C5
:108A800048BF10F1000F01BD4DF808EDFFF7F4FFEE
:108A90000CBF012000205DF808FB00BF4DF808ED79
:108AA000FFF7EAFF34BF012000205DF808FB00BF9C
:108AB0004DF808EDFFF7E0FF94BF012000205DF8BE
:108AC00008FB00BF4DF808EDFFF7CEFF94BF012073
:108AD00000205DF808FB00BF4DF808EDFFF7C4FF6C
:108AE00034BF012000205DF808FB00BF4FEA410CB5
:108AF0007FEA6C5C02D150EA013C0AD14FEA430C98
:108B00007FEA6C5C02D152EA033C02D14FF00000D4
:108B100070474FF0010070474FEA410212F5001212
:108B200015D211D56FF47873B3EB625212D94FEAB4
:108B3000C12343F0004343EA505311F0004F23FA9E
:108B400002F018BF404270474FF00000704750EAF3
:108B5000013005D111F0004008BF6FF000407047B0
:108B60004FF00000704700BF4A0011D212F500120A
:108B700011D20DD56FF47873B3EB62520ED44FEA75
:108B8000C12343F0004343EA505323FA02F07047F5
:108B90004FF00000704750EA013002D14FF0FF3033
:108BA00070474FF0000070474FEA4102B2F1E043D6
:108BB00024BFB3F5001CDCF1FE5C0DD901F0004CC4
:108BC0004FEAC0024CEA5070B2F1004F40EB830014
:108BD00008BF20F00100704711F0804F21D113F140
:108BE0003872BCBF01F00040704741F480114FEA79
:108BF0005252C2F11802C2F1200C10FA0CF320FA02
:108C000002F018BF40F001004FEAC1234FEAD3231E
:108C100003FA0CFC40EA0C0023FA02F34FEA430388
:108C2000CCE77FEA625307D150EA01331EBF4FF011
:108C3000FE4040F44000704701F0004040F0FE402C
:108C400040F40000704700BF7BB972B90029BEBF75
:108C500000204FF0004106E008BF00281CBF6FF065
:108C600000414FF0FF3000F057B8ADF1080C6DE94E
:108C700004CE002909DB002B1ADB00F061F8DDF8D7
:108C800004E0DDE9022304B07047404261EB41019A
:108C9000002B1BDB00F054F8DDF804E0DDE90223D3
:108CA00004B0404261EB4101524263EB4303704721
:108CB000524263EB430300F043F8DDF804E0DDE9E2
:108CC000022304B0404261EB41017047524263EB22
:108CD000430300F035F8DDF804E0DDE9022304B0D9
:108CE000524263EB4303704753B94AB9002908BFA6
:108CF00000281CBF4FF0FF314FF0FF3000F00CB8E0
:108D0000ADF1080C6DE904CE00F01AF8DDF804E0CE
:108D1000DDE9022304B07047704700BF10F8012B53
:108D200011F8013B012A28BF9A42F7D0D01A7047A8
:108D3000034613F8012B002AFBD1181A013870479B
:108D40002DE9F04786468C460846089E154674462F
:108D50001946002B40F0C1808542B2FA82F245D913
:108D60004AB1C2F1200300FA02FC954094402EFA69
:108D700003F343EA0C0C4FEA154EA8B2230CBCFBDC
:108D8000FEF80EFB18CC08FB00F943EA0C439945AA
:108D900028D9EB1808F1FF3704D2994502D9A8F178
:108DA00002072B44A3EB0903A4B2B3FBFEFC0EFBAA
:108DB0001C330CFB00F044EA0344A04214D92C19E4
:108DC0000CF1FF3304D2A04202D9ACF102032C44CF
:108DD000241A43EA07401EB1D44000233460736074
:108DE000BDE8F0874746DDE76346F1E792BB431BEA
:108DF00001214FEA154EAFB2200CB3FBFEFC0EFB77
:108E00001C330CFB07F840EA0343984561D9EB1883
:108E10000CF1FF3004D2984502D9ACF102002B448A
:108E2000A3EB0803A4B2B3FBFEFC0EFB1C330CFB4C
:108E300007F744EA0344A7424DD92C190CF1FF333C
:108E400004D2A74202D9ACF102032C44E41B43EA4A
:108E50000040C0E7C2F120039540944020FA03F19E
:108E60002EFA03F34FEA154E9040AFB20343B1FB25
:108E7000FEFC0EFB1C10190C0CFB07F841EA00412C
:108E8000884522D969180CF1FF3004D2884502D9EF
:108E9000ACF102002944A1EB08019BB2B1FBFEFC3E
:108EA0000EFB1C110CFB07F743EA01439F420ED94E
:108EB000EB180CF1FF3104D29F4202D9ACF1020150
:108EC0002B44DB1B41EA004193E76046E3E7614640
:108ED000F7E76046A4E76346B8E7834206D916B9C8
:108EE000002108467CE7C6E900E0F9E7B3FA83F71A
:108EF0008FB9834201D3724508D8BEEB020460EB00
:108F0000030301209C461EB9002169E73846FAE7B1
:108F1000C6E9004CF8E7C7F1200CBB400EFA07F594
:108F200022FA0CF42EFA0CF1BA401C4320FA0CF38E
:108F3000B8404FEA144901431FFA84FEB3FBF9F825
:108F400009FB18300B0C08FB0EFA43EA00439A4564
:108F500040D9E31808F1FF3004D29A4502D9A8F1AC
:108F600002002344A3EB0A0389B2B3FBF9F809FB1F
:108F7000183308FB0EFE41EA03418E452CD96118D7
:108F800008F1FF3304D28E4502D9A8F1020321442F
:108F900043EA0040A1EB0E01A0FB02984145CE46FA
:108FA000434602D306D14D4504D20138B9EB020E37
:108FB00068EB0403002EA7D0B5EB0E0261EB0301B2
:108FC00001FA0CFC22FA07F3F9404CEA0303C6E964
:108FD000003199E74046C5E74346D9E70000000065
:108FE0002DE9F04F04469BB0C069FFF77BFA5AA306
:108FF000D3E90023FFF70AFC8246A0698B46FFF7FE
:1090000071FA55A3D3E90023FFF700FCCDE9120163
:10901000606AFFF767FA0022514BFFF7F7FBCDE9D3
:109020001401E06BFFF75EFA00224D4BFFF7EEFBF9
:10903000CDE91601DFF83C914FF0FF324FF0FF33DE
:1090400048461EF065FD59465046FFF765FD05464A
:10905000DDE91201FFF760FD0646DDE91401FFF7C7
:109060005BFD0746DDE91601FFF756FDA388804644
:1090700019933C4BD3E90023CDE91023FFF732FAD3
:1090800002460B46DDE91601FFF7DEF80022364BFB
:10909000FFF792FAFFF740FD0028B8BF4042CDE944
:1090A0000D803846FFF71EFA02460B46DDE9140133
:1090B000FFF7CAF800222C4BFFF77EFAFFF72CFDD2
:1090C0000028B8BF4042CDE90B70E37D30460A93DB
:1090D000237D0993FFF706FA02460B46DDE91201EC
:1090E000FFF7B2F81CA3D3E90023FFF765FAFFF7F7
:1090F00013FD0028B8BF4042CDE907602846FFF7BE
:10910000F1F902460B4650465946FFF79DF812A367
:10911000D3E90023FFF750FAFFF7FEFC0028B8BFA1
:109120004042CDE90550A37AC8210493637A0F4ADF
:109130000393237A0E480293E3790193A379009372
:10914000199B23F001FD48461BB0BDE8F04F1EF00F
:1091500057BD00BFAFF3008000000000D012634194
:1091600000408F40F05C012000005940A5D007006E
:10917000A85401205C5801202DE9F04F8246174683
:109180001C4600259FB00391387810B9284600F09E
:10919000A9BD252809D00399D0470028C0F2A2858F
:1091A0007B1C01350593059FEEE71822002110A8CE
:1091B0002EF0BCF87B78252B00F0BC80002398466D
:1091C0009E469C461846791C0E4611F8012B2B2A08
:1091D00000F0E38000F2DA80202A00F0E180232A08
:1091E00000F0E1802BB19DF8483043F040038DF84A
:1091F0004830B8F1000F05D09DF8483043F0200307
:109200008DF84830BEF1000F05D09DF8483043F08E
:1092100010038DF84830BCF1000F05D09DF84830A0
:1092200043F008038DF8483028B19DF8483043F0EA
:1092300004038DF848309DF8483003F04401442978
:1092400003D16FF386138DF848309DF848302A2AF1
:1092500043F080030E968DF8483040F0A9809DF8C9
:10926000493043F001038DF84930731C1A782E2AD7
:109270000CBF012100219DF8492061F341028DF8C6
:1092800049200CD15A1C0E925A782A2A40F0A0800C
:109290009DF84920023342F004028DF849201A78E3
:1092A0006C2A00F0C18000F2A380682A00F0A98037
:1092B0006A2A00F0C2804C2A00F0C78013F8012B04
:1092C000782A05938DF84B2000F209816D2A00F26F
:1092D000C980692A00F20381572A00F2E280412AFC
:1092E00004D0A2F14503022B00F2F98004219DF87D
:1092F0004A3002F0DF02A2F1410961F30203D9F121
:1093000000029DF8491042EB090262F3C7110A06F8
:109310008DF84A308DF84910CBB200F11F8103F06F
:109320007802182A40F009816FF3C6038DF849309E
:109330000023F8E08DF84B30BB1C05939DF84930B5
:109340009DF84A20DE0702F0070040F1098154F839
:10935000041B0029049108DA9DF8481041F004012B
:109360008DF84810049949420491590740F1008151
:1093700054F8046B002E80F2FF809DF849306FF3A3
:1093800041038DF849304FF0FF36F5E02D2A0DD01E
:10939000302A7FF427AF012316E74FF0010C13E7C3
:1093A0004FF0010E10E74FF001080DE701200BE729
:1093B0000EA808F023FC0E9BB3423FF457AF9DF874
:1093C00048201390C00F60F341028DF848204DE70C
:1093D0000EA808F013FC9DF848301490C3F3400227
:1093E00042EAD07262F341038DF848300E9B56E793
:1093F000742A26D07A2A7FF461AF06219DF849208D
:109400000CE05A78682A9DF8492006D1012161F3C1
:10941000C6028DF84920023350E7022161F3C602EB
:109420008DF84920013349E75A786C2A9DF8492084
:1094300001D10421EBE70321F0E705219DF8492044
:10944000ECE707219DF84920E8E7BDF8482022F421
:10945000F04222F0020242F4804242F00202ADF8F1
:109460004820DFE76E3AD3B201229A4040F28243AD
:109470001A429DF8493039D112F0240F61D1D10739
:109480002DD503219DF84A2003F07803A3F140086D
:1094900061F30202D8F100038DF84A2043EB080380
:1094A00041E00120A2F15801C9B200FA01F111F422
:1094B000624F7FF41BAF40F6010319429DF849301B
:1094C0001AD111F4043F0AD09DF84A2060F3020239
:1094D00003F07803402B8DF84A207FF429AF9DF8E4
:1094E000483043F001038DF8483021E702219DF810
:1094F0004A2061F30202EBE702209DF84A1003F0D4
:10950000780360F30201402B8DF84A1002BF9DF8EA
:10951000481041F001018DF84810632A7FF408AF2C
:10952000003B18BF01239DF84820C2F340010B43C4
:1095300063F341028DF8482000E713F0380FCED1D5
:10954000F6E603219DF84A2013F0780F61F302023A
:1095500014BF012300238DF84A20E4E70123E2E74A
:109560009DF948100029ACBF4FF0FF311399FBE67D
:109570009E077FF508AF149E00230428CDE913331E
:109580009DF8493007D1990705D49DF94910002964
:10959000ACBF06260D2602F00702012AC3F3C3035F
:1095A00032D1DA1E042A04D8DFE802F02045452033
:1095B00020002268012B4FEAE271CDE910211BD176
:1095C0009DF94020D117CDE9102104349DF84820A1
:1095D000069292074FD03A465046059B039923F0D6
:1095E0002CFB0028C0F27E830544DCE554F8042BF4
:1095F000D117CDE91021E9E7022BE6D111B242F3F0
:10960000C032CDE91012E0E7022A24D1DA1E042A82
:1096100004D8DFE802F0181010181800012B4FF0E2
:10962000000154F8042B14D0022BCDE91021CDD128
:1096300092B21092CAE7073424F00704F4E802015A
:10964000CDE91001C2E754F8042B109200221192C8
:10965000BCE7D2B2CDE7042A08D1073424F00704CE
:10966000D4E900010834CDE91001AFE7032AADD1F8
:1096700054F8042BDDE79DF84B80B8F1780F3FF6E6
:1096800092ADB8F1570F5CD8B8F1250F00F0A48067
:10969000B8F1240F7FF687ADB8F1410F04D0A8F1DF
:1096A0004503022B3FF67FADDDE91023002BC0F20E
:1096B0004D810699080700F14C81C1F300194FEA6A
:1096C0004919C3F30A51C3F31303002940F044813D
:1096D00052EA030014BF4FF0010C4FF0000CD80207
:1096E00040EA5250D702CDE90C70B8F1460F47EA74
:1096F000010740EAE17008BF4FF06608384300F008
:10970000B781BCF1000F10D01B0343EA12531703BB
:109710003A4618464FF0000C002880F25681BCF102
:10972000000F40F05981CDE90C730D9BA1F2FE3B77
:1097300043F000430D930021DDE90C230F46052083
:1097400060E1A8F15802202A3FF62DAD01A151F8A1
:1097500022F000BF1F990400A7910400A791040004
:10976000A7910400A7910400A7910400A791040009
:10977000A7910400A7910400A9960400A7910400F2
:10978000CB980400DF980400A9960400A996040071
:10979000A9960400A7910400DF980400A791040093
:1097A000A7910400A7910400A79104002599040043
:1097B0001F9904006F980400A7910400A79104006A
:1097C000E9970400A79104001F990400A7910400E1
:1097D000A79104001F99040040460399D047002830
:1097E000C0F280820135DEE4002E109F3BDB314663
:1097F00038462BF02FFA002F3FF4D5AC4FF000097C
:109800003E18F31B9DF84A2012F01001069100F05B
:109810005E82023312F04002DDF84C80089218BFDD
:10982000149A434418BF9B18049ACDF81C80002A50
:1098300040F36882D31A9DF8482004935007C2F37E
:10984000800B00F15F82510640F14F82B9F1000FA9
:1098500007D048460399D0470028C0F24382D94632
:109860000135302242E23846FFF762FAC6E7109827
:10987000002800F027820DF175030093002117AB3B
:1098800012AA08F0D1F94FF000090746BDF84A3096
:1098900003F0EF0343F4F04343F01003ADF84A3014
:1098A000002E0CDB9DF848200DF17503DB1B6FF3D8
:1098B00086129E428DF8482001D9F31A1393002F87
:1098C0003FF471AC0DF175066DE0109B4FF000098F
:1098D0008DF85C300DF15D06012317AF92E7069B12
:1098E0001F0754BFC3F300194FF02B09DDE9102304
:1098F00058BF4FEA4919002B06DA4FF02D095242A2
:1099000063EB4303CDE91023DDE910010DF175038D
:10991000009312AA17AB08F087F90746C0E74FF08B
:109920000009F1E7109A072B3FF63DACDFE803F0A2
:109930000C04060C08080C0C157034E4158032E495
:10994000EB17C2E900532EE415602CE44FF02D090B
:10995000B7E64FF02B09B4E640F2FF70814231D1F7
:10996000A34908F101085FFA88F811F808101343B9
:1099700001F003011ED101290BBF492369234E21A8
:109980006E210CBF462266228DF85C309DF848306F
:109990008DF85D106FF386138DF85E208DF84830DA
:1099A0000DF15F0617AFF31BB9F1000F3FF42AAFBB
:1099B000013327E7012915BF6E234E236121412181
:1099C0001A46E1E74FF0000C89E692184FF0010CBF
:1099D00001F1FF3140419FE6CDE90C20A5E6520898
:1099E00042EAC3725B08B3F1333F59460BF1010BF6
:1099F000F5D201F1020B012100FB03FCA2FB0023C5
:109A0000013F63441BF1020FE9DB09B1CDE90C23EF
:109A1000DDE90C32BBF1000F2DDCCBF10401A1F12B
:109A200020000BF11C0B02FA0BFB22FA00F0CA40DB
:109A3000CB40079208F0DF0243EA0B03472A43EAD0
:109A400000037BD1F91C01DBBE422ADAA8F102082F
:109A5000002E5FFA88F87ADD9DF84820013E9206D4
:109A600075D4B6F1000B18BF4FF0010B721C26E045
:109A70004FF0000B5FE6023342F100020CA80BF13D
:109A8000FF3B0137CDE90C3223F0A8F8DDE90C32B9
:109A9000DB185241002A0BF1FF3BF9DACDE90C3219
:109AA000B6E79DF84820F61B90064DD4B6F1000BA2
:109AB00018BF4FF0010BF2194FF066084AD4102A74
:109AC000A8BF10229FED487B10208DED0E7B0B90E0
:109AD000DDE90E01002A3FD1079A1B1842EB010174
:109AE000B1F1805F47D2CDE90C31069BB8F1660F2A
:109AF00003F0200240F0C680002F47DC30238DF8B1
:109B00005C30002A76D1002E40F3BD812E238DF8E3
:109B10005D3087B17B42B342A8BF3346002B13931D
:109B2000A6EB0306D4BF002301239DF84A2063F36C
:109B300045128DF84A200DF15E0340E0B8F1660F42
:109B40004FF0000BB7D091E74FF0000BB3E74FF0A9
:109B5000000B8BE70022B5E7400840EAC1704908D6
:109B6000CDE90E010EA8CDE9082323F037F8089AB5
:109B7000099B013AACE75B0843EAC1730CA84908AA
:109B8000CDE90C31013723F029F8AEE717AB0B997B
:109B900000290BDD0BA90CA8CDE9063223F036F81D
:109BA000069B013F079A03F8010BF0D11397AAB95E
:109BB000002E40F366812E2103F8011B0027002EA2
:109BC00021DD0B9A002A1EDD0BA90CA8069323F0B9
:109BD0001DF8069B013E03F8010BF0E72E2203F867
:109BE000012BEBE7AFF3008000000000000000084D
:109BF000C94208002E238DF85D30002F9BD0002E27
:109C000088DC0DF15E03BBF1000F4FD114961E46A8
:109C100008F0DF03452B24D1002FBABF7F422D234C
:109C20002B23632FC8BF64227370C4BFB7FBF2F34A
:109C300002FB13774FF00A02C8BF03F13001B7FBF4
:109C4000F2F3C8BFB17003F1300102FB137386F861
:109C5000008003F13003D4BF0236033631707370D5
:109C60000236139B002B2BDC149B002BD4BF00234C
:109C700001239DF84A2063F3861200238DF84A20C1
:109C800033708FE60BA90CA8069222F0BFFF069A4C
:109C900030288DF85C0018BF07F1FF3712B9002E8D
:109CA00040F3F1802E238DF85D3044E71E4616F810
:109CB000012C013B302AF9D02E2A08BF1E46A7E707
:109CC0000123D6E7714E81460523771F9AE51107D8
:109CD00048BF01339EE5104609920399D0470028FA
:109CE000099A05DA1FB0BDE8F08F2022DDF810B028
:109CF000594600290BF1FF3BEDDC049BCDF810B079
:109D00002B445D1AB9F1000F05D048460399D0479E
:109D10000028E7DB0135089B002B77D09DF94930FF
:109D2000002B28DB3B46DFF8689118789B4619F832
:109D30000020013352073FD49DF84A30EF1B9806AC
:109D40005F4407D44246002A08F1FF383BDC079BFA
:109D50003B449F1A9BF800002E280AD10399D04754
:109D60000028BFDBB8F1000F07F1010731DC0BF170
:109D7000010B5D4638E0B94699F80000C8467028E6
:109D800009F1010913D1EF1B149D47443D44EB1B1E
:109D9000002B33DC334642465046039922F04DFFF8
:109DA00000289FDB3844049E0546064464E003997E
:109DB000D0470028E0DA95E706930399D0470028BA
:109DC000069BB2DA8EE730200399D0470028B9DA33
:109DD00088E730200399D04708F1FF38C0E703999E
:109DE000D0470028FFF67EAF2878A84619F8003043
:109DF00001355907F3D4A7EB0B07C5E730200399CA
:109E0000D0470028FFF66EAF0137C0E79DF84A3013
:109E1000DA0601D41B0706D530200399D047002865
:109E2000FFF660AF0135069B3BB103999DF84B00EF
:109E3000D0470028FFF656AF0135A84406E0302091
:109E40000399D0470028FFF64DAF0135A8EB050375
:109E5000002BF4DC33463A465046039922F0EDFEDF
:109E60000028FFF63FAF28449DE720200399D04704
:109E70000028FFF637AF0135731B002BF5DCFFF729
:109E800092B91746BFE60DF15D03BCE6AADF0700F5
:109E9000CA420800000000002DE9F04706460F46C0
:109EA000904688B02CF0F6FF4FF47A73A0FB034580
:109EB00003FB0155E40B012F44EA45444FEAD53535
:109EC00007D122462B463046274924F022FC0020A9
:109ED00012E0D8F8047025483946FEF71FFF70B12C
:109EE00039462348FEF71AFF48B130463A46214921
:109EF00024F02BFC6FF0040008B0BDE8F08720468A
:109F000017A3D3E900232946FEF79EFE05460C461B
:109F100010461946184A0023FEF796FE80460F4663
:109F2000104619464EF660220023FEF78DFE82464B
:109F30008946104619464FF47A720023FEF784FED4
:109F4000CDE902A9CDE90623CDE904012A4623463D
:109F50003046CDE90087094924F0DBFBB7E700BFB5
:109F6000005C260500000000BCE70700CDE7070005
:109F7000D0E70700D9E7070080EE3600F1E70700D9
:109F8000F0B58C4685B06C461E460369BCF1070FE0
:109F9000054617460FCB84E80F0032D8BCF1030FFB
:109FA0003AD9002F40F0D1803388B3F5FA4F80F0D2
:109FB000B880B3F57A5F80F0B680B3F5FA5F80F0D1
:109FC000B480B3F57A6F80F0B280B3F5FA6F80F0A9
:109FD000B080B3F57A7F80F0AE80B3F5FA7F80F081
:109FE000AC80C72B00F2AB80632B00F2AA80312B30
:109FF00000F2A980192B34BF0B230A238DF80530FA
:10A0000034E0BCF13F0F00F0EF807F4803685B074E
:10A0100000F0E7807D49E2E0002F46D13388B3F5B8
:10A02000FA4F28D2B3F57A5F27D2B3F5FA5F26D27A
:10A03000B3F57A6F25D2B3F5FA6F24D2B3F57A7FF0
:10A0400023D2B3F5FA7F22D2C72B22D8632B22D892
:10A05000312B22D8182B22D80B2B22D8052B22D813
:10A06000032B34BF0E230D238DF8023021462846E2
:10A0700028F0B4FE4FE00123F6E70223F4E70323C0
:10A08000F2E70423F0E70523EEE70623ECE70F23CE
:10A09000EAE70723E8E70823E6E70923E4E70A23DA
:10A0A000E2E70B23E0E70C23DEE7072F2DD17368EF
:10A0B00057483668D917C6FB0031012B71F10002F1
:10A0C00017DB00F56E1000F65D70181841F1000105
:10A0D00049A3D3E90023FEF7B7FDC0B20F2810D87B
:10A0E000072810D8042834BF032302238DF8013039
:10A0F000BCE74848181861F100013FA3D3E90023E9
:10A10000E9E70023F2E70123F0E73F480368590736
:10A1100003D16FF0850005B0F0BD3F4928F03DFE4A
:10A12000F7E701236AE7022368E7032366E70423CE
:10A1300064E7052362E7062360E70F235EE7072352
:10A140005CE708235AE7092358E7072F42D17368D1
:10A150003068B4262E49DA17C0FB0132A3FB060192
:10A16000012B06FB021172F100021FDB2B4BC01802
:10A1700041F1000122A3D3E90023FEF765FD83B27C
:10A18000B3F5FA6F1AD2B3F57A7F19D2B3F5FA7F25
:10A1900018D2F92B18D87C2B18D83D2B18D81F2B88
:10A1A00034BF072306238DF804305FE71C4BC0182B
:10A1B00061F1000112A3D3E90023DEE70023F2E7F7
:10A1C0000123F0E70223EEE70323ECE70423EAE7A9
:10A1D0000523E8E70C4803685A0702D00E4928F027
:10A1E000DCFD6FF0150096E70F2FF3D13368002BDD
:10A1F000F7DB02933AE700BF3AA3950000000000A6
:10A20000D8EF2F000000000044560120280B080062
:10A2100040420F00632EB5FF120B0800ECF7170049
:10A220001408E8FF000000002DE9F04F914689B0C6
:10A23000DFF8E4A098469DF84830402204460F46D7
:10A2400048465146059328F03AFFDFF8D0B005465E
:10A2500012225946404628F032FF00239D4206460E
:10A26000CDE9063307DA4A462749204624F06DFA3D
:10A2700009B0BDE8F08F002802DA42462349F4E72E
:10A28000A9B282B2BB68D3F80480B8F1000F13D032
:10A29000384606ABC04790B110F1160F02D1059BAE
:10A2A000002BE5D000905BF8263020465AF8252098
:10A2B000174924F04AFADBE76FF05700F2E70798F6
:10A2C000FEF710F90EA3D3E90023FEF79FFA8046AC
:10A2D00006988946FEF706F902460B46404649466F
:10A2E000FDF7B4FFCDE902015BF82630204600936C
:10A2F0005AF825303A68074924F0FDF9B8E700BF5D
:10A300000000000080842E41D00E0800E60E0800F8
:10A31000FE0E08002B0F0800BC4A0120744A0120E1
:10A320002DE9F04F0028D3B09B46159106DA374946
:10A33000586853B0BDE8F04F24F007BA1868836836
:10A340005B69002B36D1324B1F930024314D324EC6
:10A35000324F1F9BDB680BB10C2C3AD10025304BE0
:10A360001093ABB2119300230A2D219343D840F2EE
:10A370007773EB40DB0700F17482119A1F9BADF8F5
:10A3800080200022ADF882205B68209823AA22A9B1
:10A3900098470346002832D1229A802A40F23D8114
:10A3A0008021CDE900212A461E49DBF8040024F073
:10A3B000CCF924E01FA998470028C6D0DBF800306C
:10A3C00019491A68DBF8040024F0BFF953B0BDE85E
:10A3D000F08F1598A1B2984758B10C236343EB58FE
:10A3E0002246002B08BF33463946DBF8040024F030
:10A3F00082F90134ADE7119B253B022BBDD8109BA0
:10A40000013504333F2D1093ABD1DFE7061208006E
:10A41000809E0700F09D0700FE110800331208001F
:10A42000BC4A01204F12080013120800382224A849
:10A4300021912CF07BFF119B23F00404A4B21F9BFD
:10A44000ADF882609F68119B1598ADF8803032ABF3
:10A4500000932099012321AAB8470028DDF89880AD
:10A4600000F3EF80DDE928014FEAE87A42465346DF
:10A47000FEF73AFCDDE924790646DDE92A01534678
:10A480004246FEF7E1FBDBF8043004461393BDF8C7
:10A4900048301493F319169349F100030F2D1793C5
:10A4A00000F05E8100F23881119B23F00403032B3E
:10A4B00002D00B2D40F08681DDE92C010123CDE98E
:10A4C00032799DF9C0704246ADF8D0305346CDE99F
:10A4D00037648DF8D870FEF7B7FB42465346399083
:10A4E0008146DDE92E01FEF7AFFB109BB04A1B68E9
:10A4F00006461B93AF4B3A9012EA240238BF1A4625
:10A50000002CB8BF6442002F189280F207817B4272
:10A51000DC400023E20F42EA4303002124F0004024
:10A520001C93FEF713F89EA3D3E90023FEF744F82B
:10A530009DA3D3E90023FEF769F9FEF715FB9C4ABA
:10A540009C4B1D9012EA290238BF1A46B9F1000F40
:10A55000B8BFC9F10009002F199280F2EA807B424E
:10A5600029FA03F000234FEAD079002120F00040BF
:10A5700049EA4309FDF7EAFF89A3D3E90023FEF77F
:10A580001BF889A3D3E90023FEF740F9FEF7ECFAA4
:10A59000874A884B86EAE67412EA260238BF1A46D2
:10A5A000002F82461A92A4EBE67480F2CE80002639
:10A5B0007B42DC4024F000400021FDF7C7FF78A378
:10A5C000D3E90023FDF7F8FF77A3D3E90023FEF7D3
:10A5D0001DF9FEF7C9FA1A9BE40FCDE90BA3199BED
:10A5E0000E9009931D9B44EA460408931C9B2A463F
:10A5F0000793189BCDE901780693169B6E49049347
:10A60000179B13980593149B0D9400931B9BCDF8F7
:10A61000289024F070F8129B01331293119ABDF820
:10A6200048601F9BADF88020ADF8826020991B68C0
:10A6300015980DF17A029847014600283FF4F6AECE
:10A64000DDE60F2D2A9B08F10100DDE9282130D03D
:10A650002DD8032C01D00B2D44D1B8F1000F03D11C
:10A66000DDE93289CDE9248926909DF8D8008DF85E
:10A67000C0003798101841F10001CDE92801389940
:10A680002B9A5B1842EBE172CDE92A3239992C9B67
:10A690002D9A5B1842EBE172CDE92C323A992E9B50
:10A6A0002F9A5B1842EBE172CDE92E32C7E6282DD6
:10A6B000D2E7B8F1000F03D1DDE93289CDE9248971
:10A6C0002690369810189DF8DC2041F1000102F028
:10A6D00001029A182B9BCDE9280143F10003CDE933
:10A6E0002A23ACE6B8F1000F03D1DDE93289CDE9C8
:10A6F000248926909DF8D8008DF8C000379812184C
:10A7000041F10001CDE9282138992B9A5B1842EBE1
:10A71000E172CDE92A3292E6282DCBE6A7F120039B
:10A72000C7F1200204FA03F324FA02F21343BC40F7
:10A73000F0E6A7F12003C7F1200209FA03F329FA92
:10A7400002F2134309FA07F00DE7A7F12006C7F15B
:10A75000200304FA06F624FA03F31E43BC4029E75B
:10A7600001231C40ADF8D0309DF8DC30049464F334
:10A7700000038DF8DC30169BCDF804800293179B04
:10A780002A460393149B0D4900930D4B1398DB6BE2
:10A79000CDE93279369623F0AEFF3CE7AFF3008087
:10A7A0000000000080842E410000C0FFFFFFDF4159
:10A7B000D04B0800A4EA0700A31208000913080000
:10A7C000BC4A01200123ADF8D030109BCDE932798D
:10A7D000CDE93764D3F80090294E2A4B9DF9C0701B
:10A7E00016EA240638BF1E46002CB8BF6442002F6C
:10A7F0008DF8D87029DA4FF0000A7B42DC4024F053
:10A8000000400021FDF7A2FE19A3D3E90023FDF7C4
:10A81000D3FE19A3D3E90023FDF7F8FFFEF7A4F94F
:10A82000169BE40F0493179B44EA4A040593149B78
:10A83000089000932A464B46CDE90664CDE901789D
:10A840001149139823F057FFE5E6A7F1200AC7F155
:10A85000200304FA0AFA24FA03F34AEA030ABC4082
:10A86000CDE7109B0135043310937AE5AFF30080F8
:10A870000000000080842E410000C0FFFFFFDF4188
:10A88000D04B0800A4EA07005413080000000000A1
:10A890002DE9F04F476A97B08346209E08910C92AD
:10A8A000129355EC104B8DED000B7FB910201EF06C
:10A8B00091FE0246CBF8240020B9A74BEA21A74815
:10A8C0001EF044FEC0E901770760C760DBF8243062
:10A8D000196859B15A680123584693404A608B6001
:10A8E00020F0FEFCDBF8243000221A602B1EB7BFDC
:10A8F00023F00043002301220193A8BF3360019F8E
:10A90000974BB8BF3260BB4319D142F20F73129A12
:10A910001360C7F31303234300F0DB85219B53B976
:10A92000904B21E0904B03930833219A13600398D6
:10A9300017B0BDE8F08F8B4B03930333F5E79DED24
:10A94000007B0022002351EC170B8DED0A7BFEF7F4
:10A950009BF8804650B10123129A1360219B13B1DA
:10A96000824B219A1360824B0393E0E7C7F30A56A8
:10A9700014AA15A958469DED0A0B20F039FF029044
:10A98000002E76D00B9BA6F2FF36CDF84C80C3F399
:10A99000130343F07F53DDE90A0143F440131946E2
:10A9A0000022744BFDF750FC65A3D3E90023FDF7AB
:10A9B00003FE65A3D3E90023FDF748FC04460D46DA
:10A9C0003046FDF78FFD62A3D3E90023FDF7F4FDC8
:10A9D00002460B4620462946FDF738FC04460D4644
:10A9E000FEF79AF800220746002320462946FEF784
:10A9F00055F840B13846FDF775FD22462B46FEF767
:10AA000043F800B9013F162F52D85B4B03EBC70345
:10AA1000DDE90A01D3E90023FEF740F8002849D018
:10AA2000013F00231193149B9B1B5A1E4CBFC3F183
:10AA300001030023079245BF069300230693079363
:10AA4000002F39DB079B10973B44079300230993A2
:10AA5000089B092B66D8052BC5BF043B00240124A5
:10AA60000893089B023B032B67D8DFE803F02D3ADD
:10AA70003859DDE914631E4406F23243202BC9BF66
:10AA8000C3F14003C3F120039F4006F21243D8BF35
:10AA900004FA03F006F1FF36C4BF24FA03F347EAD1
:10AAA0000300FDF70FFD0122A1F1F873139276E781
:10AAB0000123B7E71190B6E7069BDB1B06937B42A9
:10AAC000099300231093C3E700230D930C9B002BE5
:10AAD00056DC012399461A4604930C920CE001239C
:10AAE000F3E700230D930C9BFB1803F1010904937A
:10AAF0004B46012BB8BF0123DBF8240000210422C0
:10AB000002F114059D423FD94160584620F0A8FB50
:10AB1000039000283BD1194B02464FF4D571CEE685
:10AB20000123DFE7012400230D9408934FF0FF3346
:10AB30000022994604931223CFE701230D93F5E7F2
:10AB400061436F63A787D23FB3C8608B288AC63F33
:10AB5000FB799F501344D33FAC4A0800C34A080016
:10AB60000000F07FA84A08009F4A080051FD070036
:10AB700050FD07000000F83FC08B0700374B08006E
:10AB80000C9B99460493B7E701315200B8E7DBF814
:10AB90002430B9F10E0F039A1A606FD8002C6DD0D3
:10ABA000002F36DD07F00F02A04BF8054FEA2714FF
:10ABB00003EBC20393ED007B8DED0E7B17D59C4B11
:10ABC00004F00F044FF00308D3E90823DDE90A017C
:10ABD000FDF71CFECDE90001954D5CB9DDE90E23C2
:10ABE000DDE90001FDF712FECDE900012BE04FF099
:10ABF0000208F1E7E10709D508F10108DDE90E01D6
:10AC0000D5E90023FDF7D8FCCDE90E016410083525
:10AC1000E3E700F007817C42844B854D4FF002084A
:10AC200004F00F02241103EBC203DDE90A01D3E9AA
:10AC30000023FDF7C1FC0023CDE90001002C40F00A
:10AC4000E580002BD0D1119BDDE90045002B00F001
:10AC50004C810022774B20462946FDF71FFF002834
:10AC600000F04381B9F1000F00F03F81049B002BFD
:10AC700000F3E480DDE90A34CDE90034159B002BB4
:10AC800002DB0E2F40F342820D9A002A40F06782C9
:10AC9000099C0025DDF81880B8F1000F0DD0079B46
:10ACA000002B0ADD4345069AA8BF4346D21AA8EBFB
:10ACB00003080692079AD31A0793099B0BB30D9BBF
:10ACC000002B00F0A682002C00F0A182294622462B
:10ACD000584620F02FFC029A01460546584620F0BF
:10ACE0007FFB02990646584620F0FAFA099B1B1B87
:10ACF000099300F09182099A3146584620F01AFCD7
:10AD000002900121584620F055FB109B0446002B71
:10AD100000F084821A460146584620F00BFC089B3E
:10AD20000446012B03DC009B002B00F07C820026F4
:10AD3000236904EB830318692CF0D4FEC0F12000D2
:10AD40001096079B184410F01F0000F09182C0F18C
:10AD50002003042B40F38182C0F11C00069B0344B6
:10AD600080440693079B03440793069B002B05DD55
:10AD70001A460299584620F037FC0290079B002B98
:10AD800005DD21461A46584620F02EFC0446119B4C
:10AD9000002B00F07682214602982CF0F2FE00286B
:10ADA00080F26F8200230A220299584620F0BAFAF4
:10ADB0000D9B7E1E0290002B00F05C820023294632
:10ADC0000A22584620F0AEFA049B0546002B03DC0D
:10ADD000089B022B00F35E82B8F1000F05DD2946C7
:10ADE0004246584620F000FC0546109B002B00F020
:10ADF000D0826968584620F033FA0746002840F0B0
:10AE00007F820D4B024640F2EA2158E5E20706D563
:10AE100008F10108D5E90023FDF7CEFB01236410FA
:10AE200008350BE74FF002080DE700BFC08B0700A5
:10AE3000988B07000000F03F374B080020460022A7
:10AE4000AC4B2946FDF7B8FB7E1E08F10108049CB7
:10AE5000CDE900014046FDF745FBDDE90023FDF7A4
:10AE6000ABFBA54B0022FDF7F1F9A1F15073CDE941
:10AE70000E010F93002C3BD10022A04BDDE9000115
:10AE8000FDF7E2F902460B46CDE90023DDE90E238A
:10AE9000FDF722FE002840F05781DDE90E2101F187
:10AEA0000043DDE90001FDF7F9FD00283FF4E2AEC3
:10AEB000002425460C9BDDF80CA0DE434FF0000873
:10AEC0002146584620F00CFA002D00F0A980B8F178
:10AED000000F05D0A84503D04146584620F000FA9F
:10AEE0002946584620F0FCF99AE03E464C46B1E728
:10AEF000834B03EBC40353E90201039B1C440D9BEA
:10AF0000002B4AD002460B4600207E49FDF77EFC0E
:10AF1000DDE90E23FDF798F9DDF80CA0CDE90E016F
:10AF2000DDE90001FDF7F8FD0546FDF7DBFA024615
:10AF300030350B46DDE90001FDF786F90AF8015BC3
:10AF400002460B46CDE90001DDE90E01FDF7C4FD27
:10AF5000002865D100206C49DDE90023FDF774F974
:10AF600002460B46DDE90E01FDF7B6FD002840F074
:10AF70000D81A24500F0EA8000225E4BDDE90E0162
:10AF8000FDF71AFB00225B4BCDE90E01DDE9000164
:10AF9000FDF712FBCDE90001C2E7DDE90E23FDF765
:10AFA0000BFBA046DDF80CA0CDE90E01DDE90001A8
:10AFB000FDF7B2FD0546FDF795FA024630350B4622
:10AFC000DDE90001FDF740F90AF8015B02460B4696
:10AFD000A245CDE900234FF0000223D1494BDDE922
:10AFE0000E01FDF733F902460B46DDE90001FDF7DE
:10AFF00073FD002840F0CA8000204249DDE90E239D
:10B00000FDF722F902460B46DDE90001FDF746FD9A
:10B0100070B1C24608F1FF381AF8013C302BF8D065
:10B02000374655E0334BFDF7C7FACDE90001BDE7E0
:10B03000DDE90A34CDE90034159B002BFFF628AE7C
:10B040000E2F3FF725AE2E4B03EBC70393ED007B8E
:10B050000C9B002B8DED047B02DAB9F1000F64D05C
:10B06000DDF80CA0DDE90045DDE904232046294692
:10B07000FDF7CCFBFDF750FD0646FDF733FADDE9A1
:10B080000423FDF799FA0246204606F130040B46E8
:10B090002946FDF7D9F80AF8014B039C02460B46F6
:10B0A000AAEB0404A14540F08280FDF7CFF80446E6
:10B0B0000D46DDE90423FDF70FFD002865D120468C
:10B0C0002946DDE90423FDF7DFFC08B1F3075CD472
:10B0D0000299584620F004F9002301378AF800301D
:10B0E000129B1F60219B002B3FF421ACC3F800A0F2
:10B0F0001DE400BF0000244000001C40000014407C
:10B10000C08B07000000E03F0000F03FA24B03EBC4
:10B11000C70393ED007B0C9B002B8DED047B9FDA26
:10B12000B9F1000F9CDC7FF4C3AE00229B4BDDE93C
:10B130000401FDF741FADDE90023FDF7C3FC0446F5
:10B1400000287FF4B5AE3E462546B4E0DDE90A347A
:10B15000CDE90034159B002B01DB0E2FD6DD089ABC
:10B16000012A36DC139A82B303F23343099CDDF8DB
:10B170001880069A012158461A440692079A1A44E2
:10B18000079220F017F9054686E53E4653469A4653
:10B1900013F8012D392A06D1039A9A42F7D13022A9
:10B1A000039901360A701A7801321A7038E70022C2
:10B1B0007B4BFDF701FA0022002304460D46FDF704
:10B1C00063FC00283FF450AF82E7149BC3F13603C1
:10B1D000CCE709F1FF34099BA34208DBB9F1000F6A
:10B1E000A3EB04040EDBDDF818804B46C1E7099B96
:10B1F000109AE31A0994DDF8188000241A444B468B
:10B200001092B6E7069BA3EB09080023B1E7029E64
:10B2100071E5099A029970E5029672E5089B012B87
:10B2200017DC009BABB9019BC3F313039BB9019BD4
:10B2300023F00046360D360536B1069B0126013354
:10B240000693079B01330793109B002B7FF470AD8F
:10B250001096012075E50026F6E73FF486AD1C3315
:10B26000069A1A4498440692079A1A4407927CE573
:10B270000346F4E7049B002B2BDC089B022B09DC24
:10B2800027E0B9F1000F1DDC089B022B1ADD3E46BA
:10B29000CDF81090049B002B7FF40CAE21460522C4
:10B2A000584620F03FF80146044602982CF069FC0D
:10B2B00000287FF7FFADDDF80CA0312301360AF836
:10B2C000013BFBE50D9B3E46CDF81090002B7FF433
:10B2D00083AD039F214602982CF07AFA039B00F17C
:10B2E0003009049A07F8019BFB1A9A4240F3CB807D
:10B2F00000230A220299584620F014F80290E9E748
:10B300002A6905F10C010C30023292002BF0E7FFA4
:10B3100001223946584620F067F9039BA8460546A6
:10B3200003F1010ADDE9032313440793009B03F0B3
:10B33000010309930AF1FF332146029804932CF08C
:10B3400047FA4146069000F1300902982CF019FCAA
:10B350002A4621460746584620F0B2F9C2680146FF
:10B3600002B358461FF0BCFF002F3ADA01220299BF
:10B37000584620F039F9214602902CF002FC0028B2
:10B3800003DC29D119F0010F26D0B9F1390F1DD1F5
:10B3900032E02846C1E700BFC08B07000000144020
:10B3A000000024400A9002982CF0EBFB0A990C90C4
:10B3B00058461FF095FF0C9A5ABB089B53B9099B3E
:10B3C00043B9B9F1390F17D0002F05DD069B03F102
:10B3D000310901E0002F2ADADDF810A00AF8019BFC
:10B3E0006EE5089B3B4304D1009B03F00103002B57
:10B3F000BCD0B9F1390F36D1049F392307F8013B8E
:10B40000BA46013F1AF8013C392B5AD001333B7040
:10B4100056E5002F06DB089B3B4306D1009B03F05B
:10B42000010313B9002AA1DCD6E7002AE1DC079B5F
:10B4300057460AF8019C53452ED000230A22029950
:10B4400058461FF06FFFA84502904FF000034FF0E1
:10B450000A02414658460BD11FF064FF804605465C
:10B460000AF1010A66E7DDF810A009F10109B5E764
:10B470001FF058FF2946804600230A2258461FF035
:10B4800051FF0546ECE7049B4FF00008002BCCBFB2
:10B490001F460127039B1F4401220299584620F0B2
:10B4A000A3F8214602902CF06CFB0028A8DC02D106
:10B4B00019F0010FA4D1BA4617F8013D302BFAD08C
:10B4C000FEE4039BBB429BD13123039A01361370E8
:10B4D000F6E4219B002B7FF425AA014BFFF744BA29
:10B4E0009F4A08000000000038B52DED028B55EC96
:10B4F000104B00F091F8224BB0EE408AF0EE608ADB
:10B5000093F90030013312D045EC104B2CF0D1FCF4
:10B5100068B12046294612A3D3E90023FDF7DCFADF
:10B5200060B124F06FF922239FED0F8B0360B0EE22
:10B53000480AF0EE680ABDEC028B38BD0CA3D3E9D3
:10B54000002320462946FDF7A9FA0028EFD024F071
:10B5500059F922239FED088B0360E8E7AFF30080E1
:10B56000EF39FAFE422E8640000000000000F07F16
:10B5700051302DD5104987C00000000000000000A8
:10B58000905501200000000038B52DED028B55ECE0
:10B59000104B00F0B1F91E4BB0EE408AF0EE608A1D
:10B5A00093F9003001331AD022462B462046294613
:10B5B000FDF79CFA98B90022002320462946FDF7A2
:10B5C0008BFA60B90022002320462946FDF75CFA79
:10B5D00060B124F017F922239FED0B8B0360B0EECE
:10B5E000480AF0EE680ABDEC028B38BD24F00AF977
:10B5F0002123BDEC028B03600648BDE8384000F013
:10B600002FBB00BFAFF30080000000000000F0FF80
:10B6100090550120A4EA07002DE9FF4755EC104B97
:10B6200025F00042AA49EE0F8A4233D9A9498A423D
:10B6300014D82046294690A3D3E90023FDF74CFAFD
:10B6400000BB204629468EA3D3E90023FDF726FA46
:10B65000002800F0A080002400250EE0C5F31303AD
:10B660002246234307D02B4620462946FCF7EEFD11
:10B6700004460D4601E0002EEDD145EC104B04B020
:10B68000BDE8F08780A3D3E9002310461946FCF7F4
:10B6900093FFEDE7904B9A4240F2A9808F4B9A427C
:10B6A00079D88F4B20462946F70003EBC603C6F135
:10B6B000010AD3E90023FCF7C7FD8A4B804689467F
:10B6C0003B44AAEB060A93ED007B8DED007BDDE9A0
:10B6D000002340464946FCF7B7FD04460D46224686
:10B6E0002B4620462946FCF767FF06460F4668A30F
:10B6F000D3E90023FCF760FF67A3D3E90023FCF73D
:10B70000A3FD32463B46FCF757FF65A3D3E9002370
:10B71000FCF79CFD32463B46FCF74EFF62A3D3E9A3
:10B720000023FCF791FD32463B46FCF745FF60A342
:10B73000D3E90023FCF78AFD32463B46FCF73CFF89
:10B7400002460B4620462946FCF77EFD02460B4684
:10B7500006460F4620462946FCF72EFFCDE902019A
:10B76000BAF1000F5CD100224FF0804330463946D9
:10B77000FCF76AFD02460B46DDE90201FDF746F8DB
:10B7800022462B46FCF760FD02460B460020564938
:10B79000FCF75AFD6CE7554B2046294603EBC606DD
:10B7A00045A3D3E90023FCF707FFD6E90023FCF704
:10B7B0004DFDFDF7B1F98246FCF794FE06460F46B3
:10B7C0003FA3D3E90023FCF7F7FE02460B462046D1
:10B7D0002946FCF739FD80468946304639463AA36A
:10B7E000D3E90023FCF7E8FECDE900016FE7404B09
:10B7F0009A4210D82046294623A3D3E90023FCF718
:10B8000025FD0022384BFDF767F938B10022364B91
:10B81000204629462AE74FF0000A60E782465EE7A5
:10B8200032463B4600204FF08041FCF70DFD0246BA
:10B830000B46DDE90201FCF7E9FF02460B46DDE9B4
:10B840000001FCF701FD42464B46FCF7FDFC0246B9
:10B850000B4600202449FCF7F7FC6FF47F729245F9
:10B8600002DB01EB0A5103E70AF57A7A00224FF076
:10B87000B87301EB0A510AE7EF39FAFE422E86400F
:10B8800051302DD5104987C09C7500883CE4377E27
:10B89000D0A4BE726937663EF16BD2C541BDBB3ED6
:10B8A0002CDE25AF6A56113F93BDBE166CC1663FB4
:10B8B0003E5555555555C53FFE822B654715F73FFB
:10B8C0000000E0FE422EE63F763C7935EF39EA3D56
:10B8D000412E8640FFFFEF7F422ED63FB1A2F03FC0
:10B8E000988C0700888C07000000F03FA88C0700A8
:10B8F000FFFF2F3E0000000051EC100BB1F5801F40
:10B900002DE9F04F0D4687B026DA21F000430246BC
:10B9100003430AD1002200230020CB49FCF776FF25
:10B9200041EC100B07B0BDE8F08F002905DA0B469B
:10B93000FCF78AFC00220023F0E7C44B0022FCF74E
:10B940003BFE6FF035030D46C14A954206DD0246C7
:10B950000B46FCF77BFCE3E70023F5E72C15C5F36A
:10B960001305A4F2FF341C4405F5152303F6647394
:10B9700003F4801383F07F5204EB1354B54B82F42D
:10B98000401242EA05010022FCF75EFCAB1C824635
:10B990008B46C3F313030022022B53DC0023FDF775
:10B9A00073F8D0B1002C00F020812046FCF79AFDFE
:10B9B00006460F468EA3D3E90023FCF7FDFD04469F
:10B9C0000D46304639468CA3D3E90023FCF7F4FD3D
:10B9D00002460B4620462946BBE789A3D3E900234C
:10B9E00050465946FCF7E8FD02460B4600209A49AE
:10B9F000FCF72AFC06460F4652465B46504659461F
:10BA0000FCF7DAFD02460B4630463946FCF7D4FD1A
:10BA100006460F4614B932463B46A0E02046FCF7E6
:10BA200061FD8046894672A3D3E90023FCF7C4FD7B
:10BA300004460D46404649466FA3D3E90023FCF770
:10BA4000BBFDA5E04FF08043A5F5C226FCF7FEFB49
:10BA500002460B4650465946C5F5D725FCF7D6FE9B
:10BA6000A6F27A465135CDE9000120463543FCF770
:10BA700039FDDDE90023CDE9020110461946FCF746
:10BA80009BFD02460B46CDE90423FCF795FD80465D
:10BA900089465DA3D3E90023FCF78EFD5CA3D3E9BF
:10BAA0000023FCF7D3FB42464B46FCF785FD5AA327
:10BAB000D3E90023FCF7CAFB42464B46FCF77CFD6A
:10BAC00057A3D3E90023FCF7C1FBDDE90423FCF70E
:10BAD00073FD55A3D3E90023CDE90401404649464F
:10BAE000FCF76AFD52A3D3E90023FCF7AFFB424603
:10BAF0004B46FCF761FD50A3D3E90023FCF7A6FBFE
:10BB000042464B46FCF758FD02460B46DDE9040170
:10BB1000FCF79CFB002D8046894648DD00224E4BF9
:10BB200050465946FCF748FD52465B46FCF744FD3B
:10BB300002460B4606460F4640464946FCF786FB42
:10BB4000DDE90023FCF738FD8046894664B90246EA
:10BB50000B4630463946FCF777FB02460B4650460B
:10BB60005946FCF771FBDBE621A3D3E90023DDE9AD
:10BB70000201FCF721FD04460D461FA3D3E9002373
:10BB8000DDE90201FCF718FD42464B46FCF75EFB7F
:10BB900002460B4630463946FCF756FB52465B469A
:10BBA000FCF752FB02460B4620462946D9E70246DF
:10BBB0000B4650465946FCF747FBDDE90023FCF7EE
:10BBC000FBFC06460F46002C3FF425AF08A3D3E943
:10BBD0000023DDE90201FCF7EFFC04460D4606A355
:10BBE000D3E90023DDE9020129E79FED150B99E672
:10BBF0000000E0FE422EE63F763C7935EF39EA3D23
:10BC0000555555555555D53F44523EDF12F1C23F6B
:10BC1000DE03CB966446C73F599322942449D23F12
:10BC2000935555555555E53F9FC678D0099AC33F62
:10BC3000AF788E1DC571CC3F04FA97999999D93F79
:10BC40000000000000000000000050C3000050434E
:10BC5000FFFFEF7F0000F03F0000E03F000000002A
:10BC60009FED010B704700BF000000000000F87F4F
:10BC700037B50F4D0F49286817F046FF04460E48A8
:10BC8000036854B15B0705D02B6801210B4A00946F
:10BC900022F005F9204603B030BD03F00703022B64
:10BCA000F8D92B680321064A22F0EFF8F2E700BF2B
:10BCB00010460120289301208C5601202AA6070057
:10BCC0004AA6070070B588B0DDE90D5618B112B16B
:10BCD0000BB105B166B915480368590703D00121B6
:10BCE000134A22F0C9F86FF06B03184608B070BD14
:10BCF0006424CDE902010C99CDE90454CDE9003169
:10BD00000C4806960C230C49006817F06BFF03469D
:10BD10000028EAD005480268520703D00121074AEB
:10BD200022F0B3F86FF06703DFE700BF8C56012005
:10BD300074A6070010460120000250059FA60700C8
:10BD40002DE9F04788B08946DDE911A814461E4662
:10BD500007462F4D38B132B12BB1BAF1000F02D0E6
:10BD6000B8F1000F0DD12B68590704D00121294AE1
:10BD7000274822F081F86FF06B04204608B0BDE838
:10BD8000F0870C21104617F0BFFF034650B12A6818
:10BD9000520704D0012128461F4A22F076F86FF09E
:10BDA0006804EAE72B6803F00703022B04D9032198
:10BDB00028461A4A22F060F84FF48073CDE904A3B4
:10BDC000109BCDE90279CDE900631548CDF81880C4
:10BDD0000C2322461349006817F0B8FE2B6804466E
:10BDE00050B15B0705D0012103460F4A084822F0F5
:10BDF0004CF86FF06604C0E703F00703022BBCD9D0
:10BE0000D8F800300321094A014822F03EF8B4E78F
:10BE10008C560120C8A60700F3A6070019A7070043
:10BE2000104601200002500534A707005DA7070057
:10BE30002DE9F04F8BB0804614460D4604AF002923
:10BE400073D0002A71D000286FD00846FCF770FF2D
:10BE500081464046FCF76CFFDFF8E4B007F10803C9
:10BE6000CDE9000B0293064643462846494607F1B2
:10BE70000C02FFF765FFDFF8C4A0054670B1DAF8E1
:10BE800000305B0705D001210346294A504621F0C6
:10BE9000FCFF28461C37BD46BDE8F08F22460C2328
:10BEA00002F8013BFB1803CBC4F80100186851608D
:10BEB000906004F10F03320AA273414632461846DD
:10BEC00066732BF00CFABA68811982558B1C100A24
:10BED0004870594618467A602BF001FA7A68104487
:10BEE000041B7F2C04D82946C4F180022BF01EFAD3
:10BEF000DAF8003003F00703022BCAD9EA468CB007
:10BF000004AA0C4BC2E90769C2E905384FF4007373
:10BF10001385094B546242F8103F00234FF45351EC
:10BF2000064806F005FED546B3E76FF01505B0E705
:10BF300086A707009CA70700060000018C56012079
:10BF4000A40B02202DE9F04F89B0604D04462B6808
:10BF5000DFF8C0B103F00703022BDFF8BCA102AF8A
:10BF600056D96E4688B002AA4FF40079584BDFF8D4
:10BF7000AC815361574BA2F81C9093614FF4E6518A
:10BF800042F8108F284620F04AF92A68B54602F098
:10BF90000702022A3CD988B002AA4E4B4E49403BC8
:10BFA00051619361A2F81C904FF4E651284642F883
:10BFB000108F20F034F92B68B54603F00703022BED
:10BFC00026D988B0DBF8003002AA4449A2F81C90B8
:10BFD000C2E9051328464FF4E65142F8108F20F0CD
:10BFE0001EF92B68B54603F00703022B10D988B061
:10BFF000DAF8003002AA3A49A2F81C90C2E9051307
:10C0000028464FF4E65142F8108F20F008F9B54663
:10C01000344B354EA365354BE36696F84830002B1C
:10C0200038D04021324A334806F148031EF096F8D2
:10C0300030482065FCF77CFE042384F882302E4BC8
:10C04000C4E917AB23674FF4807363672B4B6065BC
:10C05000A3674FF40173E36796F80831002B32D0E1
:10C060002B6803F00703022B04D90321244A174845
:10C0700020F0C3F80122002384F82420E262A263A6
:10C08000C4E90C331F4AC4E91033E2631C37BD46D0
:10C09000BDE8F08F172138461B4A1AF079F803469D
:10C0A00040B12A685207C3D00121184A074820F03E
:10C0B000B4F8BDE7F8730F234021154A00970D48E7
:10C0C0001EF04CF8B4E784F82430DFE70C57012069
:10C0D00002A8070080EB01201BA80700FBA70700B0
:10C0E00014A80700DA090220B8EA012021C10400DF
:10C0F000783808006C0D0220091302200511022077
:10C100005FA80700144601202DA8070035A80700E6
:10C1100056A80700D0EB0120C8EB01200300000166
:10C120002DE9F04784B00B7880460C4602AF092B0E
:10C1300000F21B81DFE813F00A0028003200E8005B
:10C14000190119011901FD0019010E018B48CB6974
:10C15000026802F007025BB11AB1894A012120F09E
:10C160005CF80022874B1A700837BD46BDE8F0879F
:10C170000121854B022A197003D90321834A20F03B
:10C180003CF801227F4BEEE77C48036803F007038D
:10C19000022BE6D9CB697E4A0321E0E7774E33686C
:10C1A00003F00703022B07D94A69CB6903210092E8
:10C1B0003046784A21F073FED4F81490B9F5807FA8
:10C1C00012D9DFF8D4A151464046A9F5807224F077
:10C1D000DCFE051E24D025DBA9EB0509B9F5807F1F
:10C1E000F1D86FF0790A01E04FF0000A4A46404664
:10C1F000694924F0CDFE0546A0B9237B012B5CD014
:10C20000BAF1000F1AD033685D07ADD063694FF4FF
:10C210008072012100925948604A21F040FEA3E754
:10C220006FF00405237B012B05D1238B4046391D7C
:10C23000BB8024F0D1FD002D336840DB64696D467E
:10C2400004F1080323F00703ADEB030D0DF108081B
:10C250002246404650492BF042F8002308F80430AB
:10C26000336803F00703022B12D96C468AB002AA86
:10C270004B4B4FF4235153614A4B4048C2E90638B7
:10C28000494B1362494B42F8103F1FF0C8FFA546C7
:10C290004749AD464048FCF741FD00287FF464AFB4
:10C2A000336803F00703022B04D90321414A3348C2
:10C2B0001FF0A3FF012005F057FE5546B5E715F125
:10C2C0007A0FA0D058070FD02B4601213A4A2B48AD
:10C2D0001FF0A3FF336803F00703022B04D90321E7
:10C2E000364A26481FF089FF0021404624F09BFD76
:10C2F000034600283FF435AF326851073FF431AFB1
:10C3000001212F4A1D482AE71C48CB69026802F028
:10C3100007023BB1002A3FF427AF2A4A01211FF050
:10C320007CFF21E7022A7FF61FAF8B88264A032174
:10C33000F5E71248CB69026802F0070223B1002A30
:10C340003FF412AF214AE9E7022A7FF60DAF8B884E
:10C350001F4AECE7CB69002B3FF406AF07480268A1
:10C3600052073FF4FEAE1B4AF8E60448026802F0AA
:10C370000702022A7FF6F8AE174AD8E70C570120C9
:10C380006BA80700041002200914022083A80700EC
:10C3900099A80700B6A807000510022003A9070006
:10C3A00095EF0700D4A80700000201030400000273
:10C3B000DFA80700E5A8070040A9070060A907005B
:10C3C0007DA9070096A90700ACA90700C1A907002D
:10C3D000D7A90700ECA9070004AA0700002313B59A
:10C3E0002F4C8DF805308DF806308DF80730236816
:10C3F00003F00703022B04D903212046294A1FF02A
:10C40000FCFE00210DF105022A2014F0EFFB0121B2
:10C410000DF106022A2014F0E9FB02212A200DF179
:10C42000070214F0E3FB9DF805304BB1236803F0DD
:10C430000703022B04D903211B4A19481FF0DDFE14
:10C440009DF806304BB1236803F00703022B04D993
:10C450000321164A12481FF0D0FE9DF807304BB159
:10C46000236803F00703022B04D90321104A0C4868
:10C470001FF0C3FE9DF805302BB19DF8063013B1B7
:10C480009DF807304BB9236803F00703022B04D94A
:10C490000321084A02481FF0B0FE02B010BD00BFE1
:10C4A0000C57012022AA070035AA070044AA07005A
:10C4B00057AA07006AAA07002DE9F043264D1E4639
:10C4C0002B7887B0044688461746DDF838906BB95C
:10C4D000224803685A0703D00121214A1FF08DFE2C
:10C4E0006FF07F04204607B0BDE8F0831FF09CFE8C
:10C4F00048468DF80880CDF80090FCF719FC194AE1
:10C5000001901388CDE9037601339BB2012B38BF2C
:10C5100001231380ADF814309DF8163023F0030387
:10C520008DF816301FF080FE1FF07EFE2046694613
:10C5300024F00CFC04461FF077FE002CD2D00748F4
:10C5400003685B0704D023460121074A1FF065FEFC
:10C5500000232B70C6E700BF041002200C570120F7
:10C5600094AA0700D8090220B7AA07002DE9F041D4
:10C570000D46B4B002AFC8211B4B00900646904652
:10C5800038461A4A1DF0EAFD2846FCF7D1FB184A46
:10C59000034692F80C1117482A460097FFF78CFFC4
:10C5A000044648B9C822294640462AF098FE20464B
:10C5B000C837BD46BDE8F0810F4803685B07F6D079
:10C5C0006D468AB002AA0D4BD461C2E905364FF41C
:10C5D000007313840A4B4FF4115142F8103F1FF0BF
:10C5E0001EFEAD46E3E700BF00EB0120CFAA070027
:10C5F000B8EA0120409301200C570120DCAA070073
:10C60000040000012DE9F04F9BB000AF804624F0FC
:10C6100044FB5422002107F114002AF087FE012375
:10C62000474DC7E907332B6803F00703022B15D9E1
:10C63000444B6C468AB0596C6A460433C2E90631F1
:10C640004FF4007340481384404B50614FF4135132
:10C65000284642F8103F1FF0E2FDA5463B46002168
:10C660003B4807F1140223F002FA044698B12B6804
:10C6700058070DD023460121364A31481FF0CDFD21
:10C680002B68590704D00121334A2D481FF0B5FD0E
:10C690006FF0090438E04FF0080A3E68DFF8C890F0
:10C6A00027485EB3B369082B33D10120F3692B49C6
:10C6B0005B683E1D4B60234B0880B3F84430324624
:10C6C0005BBA4B801023043123F0CDF92B6803F0C3
:10C6D0000703022B12D96D4688B06B46204A4FF4EF
:10C6E000E651C3E905264FF400729A831A461D4BA2
:10C6F000134842F8103F1FF092FDAD46386823F012
:10C70000B4F94046FFF71EFC20466C37BD46BDE835
:10C71000F08F2A68520711D0EB468AB06A46C2E908
:10C720000593182313620523C2F81CA04FF421516E
:10C7300042F8103F1FF073FDDD4601483668B0E750
:10C740000C570120B8EA0120FAAA070004000001F2
:10C75000BCEA012022AB070072AB0700DA09022015
:10C7600039AB0700030000014FAB07002DE9F04F84
:10C7700085B0844E00AF7B603368054603F0070345
:10C78000022B8846144604D9032130467E4A1FF006
:10C7900034FD0021284624F046FB034658B1326898
:10C7A00012F0060F04D00221784A76481FF035FDBA
:10C7B000284624F08EFB4FF4004000211FF032FD8C
:10C7C000DFF8E4A14FF0000328468AF8003024F097
:10C7D0007BFA8346002851D033685A0715D040426F
:10C7E0001DF000FFE9468AB06A46694BD061C2E994
:10C7F000053B40F201331384664B4FF411516148FD
:10C8000042F8103F1FF00BFDCD46336803F00703DD
:10C81000022B05D9234603215F4A5A481FF0FDFC2D
:10C820004FF4004C40F2E730002124EAE47E4FF45C
:10C830007A720023CEFB0C01FCF756FA1FF0F2FCD3
:10C8400064004FF4FA79042107F10C000BF08AFF21
:10C85000FB68B3FBF9F209FB12337A682344934275
:10C8600000F28D80042107F10C000BF07BFFFB68C8
:10C87000B3FBF9F209FB12331C44A3E7AB6AC8F817
:10C8800000300123C8F80430336803F00703022B9B
:10C8900004D90321414A3B481FF0AFFC1FF0AFFC15
:10C8A00043F6982310EB030941F1000B1FF0A7FC9E
:10C8B000484571EB0B0102DB6FF073030FE01FF0D3
:10C8C0009EFCA9EB00020121404622EAE27223F01D
:10C8D000BEF8002825DA22F095FF03685B42326833
:10C8E00002F00702002B37D0BAB15842E9463B604C
:10C8F0001DF078FE8AB06A46294B4FF411515361FE
:10C900003B68C2E9063040F201331384214B1D48D5
:10C9100042F8103F1FF083FCCD46284624F0D9FA98
:10C9200073E709D1284624F0E9FA034618BB9AF8C0
:10C930000030002BBAD00FE0B8F80630DB07F1D595
:10C94000284624F000FB034610B110F10B0FC6D1AE
:10C950009AF80030002BE5D0336803F00703022B70
:10C9600004D903210F4A07481FF047FC0020143761
:10C97000BD46BDE8F08F10F10B0FD8D0AFE77C6853
:10C9800020E700BF0C57012099AB0700B9AB0700A7
:10C99000D7AB07000400000162AC0700F4AB07004E
:10C9A0003EAC070028AC07000914022030B5B7B030
:10C9B0004FF0FF324FF0FF3351481BF0A9F85149B7
:10C9C0005148FCF7ABF920BB504A0DF10F0013683A
:10C9D0000133136027F060FC9DF80F30012B02D16A
:10C9E0004B4B1B7883B94B48036813F0060F03D0F9
:10C9F0000221494A1FF001FC41481BF001F96FF088
:10CA00007F05284637B030BD444824F077FA00242B
:10CA10002CE0434B1A78002A5CD004ACC821414A70
:10CA200020460093404B1DF099FB3748FCF780F9F6
:10CA30003E4900940346344A91F80C113748FFF7F9
:10CA40003BFD044648B9C8222F492E482AF047FC2E
:10CA5000374A136801331360D9E72E4803685A0731
:10CA600004D023460121334A1FF0D7FB324A334911
:10CA700033481FF0DBFB334A0546334933481FF088
:10CA8000D5FB334A0543334933481FF0CFFB0543F9
:10CA900002D0002C08BF2C46304B1A78AAB104AD46
:10CAA000C821204A284600931F4B1DF057FB2C48F5
:10CAB000FCF73EF91D4900950346294A91F80C11EF
:10CAC0001648FFF7F9FC054670B925460C481BF0DF
:10CAD00097F896E70F48036813F0060F97D00221E6
:10CAE000204A1FF08AFB92E70A4803685B0704D0DC
:10CAF0002B4601211C4A1FF090FB002CE5D1E5E7F5
:10CB00005C580120A40C0220A8540120309301207D
:10CB1000041002200C57012074AC07004093012040
:10CB20004851012095EF070000EB0120B8EA0120F1
:10CB30003493012091AC07003C0F022018530120D0
:10CB4000DFAC0700740E022050520120E6AC070053
:10CB5000AC0D022088510120EEAC070008510120E5
:10CB6000E0530120B0AC0700F7AC0700F8B5002691
:10CB700000AF1FF059FB4FF4004540F2E73031465B
:10CB8000564B4FF47A721C68002324EAE474C4FB09
:10CB90000501534DFCF7A8F81FF044FB1FF044FBC0
:10CBA00032460121284622F052FF04461FF03CFB8A
:10CBB000B4423DDA4B4C2368580707D022F022FEDE
:10CBC00001210368484A20461FF027FB1FF02CFB79
:10CBD000FFF7ECFE04461FF027FB1FF025FB002C9F
:10CBE00078D0404D2B685A0715D060421DF0FAFCF2
:10CBF0006E468AB06A463D4BD061C2E9053440F2C8
:10CC0000013313843A4B4FF41151284642F8103F38
:10CC10001FF005FBB5462B680B3403F0060313D158
:10CC2000002B47D00221334A2E481FF0E6FA41E09C
:10CC3000CCD0EB88D907C9D51FF0F6FA2E4824F0DE
:10CC400082F91FF0F1FAC1E72C4C2BB102212368C5
:10CC50002B4A24481FF0E1FA23680133042B236098
:10CC600002DD012005F080F947F230534FF4FA72EB
:10CC70001B492148FFF77AFD224E044600B32B687A
:10CC80005B0715D040421DF0ADFC6D468AB06A4688
:10CC90001D4BD061C2E9053440F201331384144BBB
:10CCA0004FF411510F4842F8103F1FF0B8FAAD464B
:10CCB000002333701FF0B8FA1FF0B6FABD46F8BD76
:10CCC000012333702B6803F00703022BF2D90321F1
:10CCD0000E4AA9E7094B1C60ECE700BFB8EA012047
:10CCE000389301200C57012016AD070027AD07002F
:10CCF000040000013DAD0700409301202C9301206A
:10CD00005CAD07000410022072AD070091AD070072
:10CD10002DE9F04F85B002AF1FF071FA80468A46C8
:10CD20001FF06DFA834689461FF069FA4C4D1FF0DB
:10CD300066FA0446F81D0E4627F0AEFA002839D1EF
:10CD4000FB7903F0FB03012B34D14EF66022B4EBE8
:10CD50000B0166EB0903914273F1000340DA414B8A
:10CD6000B4EB08001B6866EB0A02D91798428A41A7
:10CD700016DB3D4A927A9AB1013311D02B6803F049
:10CD80000703022B04D903212846384A1FF035FA3D
:10CD900003F01AFC012801D103F062FBA046B24661
:10CDA00003F012FC022855D14FF4004000211FF07F
:10CDB00039FABCE72B6813F0060F06D0FB79022185
:10CDC00000902B4A284621F06AF80022294B1A705D
:10CDD0004FF0FF324FF0FF3327481AF0C7FFA6E7A6
:10CDE000264B1968A1B3264B4B43B3FBF2F32A68D9
:10CDF000DFF8909002F00702022A21D91D4AEB4683
:10CE00008CB092F800C0D9F8000002AADFF878E0F0
:10CE10005062C2E905EC4FF47A704FF0010CC2E9A0
:10CE200007C1B3FBF0F100FB1133D3620823916219
:10CE3000284644F2C00142F8103F1FF0F0F9DD46E9
:10CE400000230E4AC9F80030A346B146136086E7B6
:10CE50000B46CCE7FFF78AFE1FF0D1F967E700BF6A
:10CE60000C570120ACE90120E02602200FAE07009C
:10CE7000AFAD070004100220345901203493012083
:10CE800040420F0030930120D4AD070010B5314C63
:10CE900088B0236803F00703022B04D9032120463E
:10CEA0002D4A1FF0AAF94FF4004000211FF0BAF9F3
:10CEB0002A48FFF7A7FB034650B12268500747D026
:10CEC000274A0121234808B0BDE810401FF0A5B94A
:10CED0004FF4004000211FF0A5F9204823F0F4FE94
:10CEE000034638B12268510704D001211D4A194870
:10CEF0001FF093F94FF4C03000211FF093F91A4945
:10CF000016481FF0A4F9034620B1226852071FD02B
:10CF1000164AD6E7002000210122CDE90601CDE91D
:10CF20000232CDE9003304934FF40062104B1149F3
:10CF300011481BF0E3F9236803F00703022B07D91C
:10CF400003210E4A034808B0BDE810401FF055B950
:10CF500008B010BD0C57012038AE070040930120E7
:10CF600055AE070065AE07003893012085AE070077
:10CF700011CD040038790220905A012092AE0700AA
:10CF8000F8B583880446302B0CBF184D184D0F465A
:10CF90002E7826BB7C211FF02EFA314620461FF04A
:10CFA0003EFA062120461FF02AFA802120461FF073
:10CFB0002AFA314620461FF02AFA282120461FF07F
:10CFC00032FA282120461FF032FA282120461FF08D
:10CFD00032FA314620461FF01EFA01232B703946E3
:10CFE0002046BDE8F8401FF016BA00BF0B1402201F
:10CFF0000A14022002210148FFF7C2BF14EC0120ED
:10D0000008210148FFF7BCBF14EC01200A210148A8
:10D01000FFF7B6BF14EC01202A210148FFF7B0BF8B
:10D0200014EC012002210148FFF7AABF0CEC0120FB
:10D0300028210148FFF7A4BF0CEC01202221014860
:10D04000FFF79EBF0CEC01202A210148FFF798BF93
:10D050000CEC01200020064B00221870002305492B
:10D06000C1E900230449C1E90023044B187070474B
:10D070000D140220E85C0120E05C01200C14022069
:10D0800037B50F4D04462B783BB920460D4921F0AA
:10D090005CFB4FF0FF3003B030BD1FF0DEF80A4BF1
:10D0A000C3E900012B78002BEFD003232046009327
:10D0B0003C221E23054921F02CFB0020EBE700BF9A
:10D0C0000C140220B0AE0700E05C0120C4AE0700E3
:10D0D00037B5324D04462B783BB92046304921F014
:10D0E00034FB4FF0FF3003B030BD1FF0B6F82D4BCE
:10D0F000C3E900012B78002BEFD020462A4921F00C
:10D1000008FB4FF47B222046284921F002FB4FF414
:10D1100000522046264921F0FCFA002220462549EB
:10D1200021F0F7FA80222046234921F0F2FA4FF449
:10D1300080522046214921F0ECFA20222046204945
:10D1400021F0E7FA022220461E4921F0E2FA4022AD
:10D1500020461D4921F0DDFA41F6FC731B4A2046AA
:10D160001B4921F0D6FA20461A4921F0D2FA0025AF
:10D170001F2301222046CDE9005317492B4621F0F9
:10D18000C8FA20233F222046CDE9003212494FF44D
:10D190008053022221F0BDFA2846A4E70C14022095
:10D1A000B0AE0700E05C0120E6B20700FEB2070067
:10D1B00018B307003CB307005AB3070078B3070061
:10D1C0009CB30700B4B30700CCB30700FCCF0F003B
:10D1D000E4B307000AB4070019B40700F8B5194F03
:10D1E00005463B780E4614463BB92846164921F0C1
:10D1F000ACFA4FF0FF342046F8BD1FF02EF8134B69
:10D20000C3E900013B78002BEFD0022E04D1104976
:10D210006068FBF783FD30B128460E4921F095FA8E
:10D220006FF01504E7E701F0E1FA044620B928465B
:10D23000094921F06EFADEE702460849284621F046
:10D2400084FAD8E70C140220B0AE0700E05C01209D
:10D250009FC2070040B4070057B407007BB4070023
:10D26000F7B52C4F05463B780E46144643B9284681
:10D27000294921F06AFA4FF0FF34204603B0F0BD8F
:10D280001EF0EBFF254BC3E900013B78002BEED0ED
:10D29000032E04D122496068FBF740FD30B12846D7
:10D2A000204921F052FA6FF01504E6E7A06829F052
:10D2B000F4FF471E012F064605D902461A492846A3
:10D2C00021F043FAEFE71A2001A906F0F9F8044625
:10D2D00028B102461549284621F037FACDE73F0329
:10D2E0004FF480523946019820F054FF044648B16B
:10D2F0000346324628460E4921F027FA019820F0CD
:10D300001EFFBAE73B46324628460A4921F001FA99
:10D31000F4E700BF0C140220B0AE0700E05C01206F
:10D32000863E080092B40700AFB40700D9B40700E6
:10D33000F5B4070012B5070070B51E4D04462B78F2
:10D3400033B920461C4921F000FA4FF0FF3070BD80
:10D350001EF083FF194BC3E900012B78002BF0D09E
:10D3600041F6FC714FF47B2001F008FA4FF47C2366
:10D37000054613492046D3F8FC6F21F0CAF941F65F
:10D38000FC7220460F4921F0C4F92A4620460E4976
:10D3900021F0BFF9324620460C4921F0BAF90C4B76
:10D3A0000C4A2046B54208BF1A460B4921F0B1F994
:10D3B0000020CCE70C140220B0AE0700E05C012096
:10D3C0003BB507004DB507006EB5070082B50700F5
:10D3D00035B5070033B5070096B507002DE9F04FC6
:10D3E0006B4CADF5845D237880460D46164685B0BE
:10D3F0005BB94046674921F0A8F94FF0FF34204659
:10D400000DF5845D05B0BDE8F08F1EF026FF624B80
:10D41000C3E900012378002BEBD0012D06D840464C
:10D420005E4921F092F96FF01504E8E7706829F081
:10D4300034FF431E012B8246039305D90246584907
:10D44000404621F082F9EEE74FF48052FF2124A8F4
:10D4500029F06CFF032D46D94FF00109039B043DD1
:10D460001B03A3F5FB576D081D3F0DF1900B023513
:10D470007E2FD6E9020103D902780AB10A78FAB9F7
:10D480008022FF21584629F051FFB9F1200F4C4668
:10D4900035D1202352464046424921F03AF91A201C
:10D4A00004A906F00DF8404D044698B32B685907BF
:10D4B000A5D00346012128463C4A1EF0DCFE9EE72B
:10D4C00004AAFEF7B5FC044638B103463849404685
:10D4D00009F1FF3221F039F991E78022584604A979
:10D4E00029F0FDFED1E70024202CD2D024AB03EBA1
:10D4F000C4108022FF2129F019FF0134F4E709F15B
:10D500000109A94506F1080607F180070BF1800B18
:10D51000AED1E9E7039B4FF480521F0339460498CC
:10D5200020F038FE044668B12B685A0706D003463F
:10D53000012128461F4A00971EF09FFE049820F004
:10D54000FEFD5CE74FF480533946049824AA20F08E
:10D550000CFE044648B12B685B07EFD0034601215F
:10D560002846154A1EF087FEE8E7049820F0E7FDFC
:10D570002B6803F00703022B06D9534603212846E4
:10D580000E4A00971EF079FE01F030F9044636E7A6
:10D590000C140220B0AE0700E05C0120A6B5070025
:10D5A000E4B507001BB607005C5601203CB6070037
:10D5B000FBB5070057B6070082B607009EB6070006
:10D5C000F8B5194F04463B780E46154633B9204648
:10D5D000164921F0BAF84FF0FF30F8BD1EF03DFEBD
:10D5E000134BC3E900013B78002BF0D0022E06D08C
:10D5F0002046104921F0A9F86FF01500EDE76D689D
:10D60000284601F061F92A46034630B920460A4906
:10D6100021F09BF86FF00100DFE72046074921F079
:10D6200078F80020D9E700BF0C140220B0AE070044
:10D63000E05C0120BFB60700DCB607000DB70700AD
:10D6400038B50F4D04462B7833B920460D4921F0EB
:10D650007CF84FF0FF3038BD1EF0FFFD0A4BC3E9E8
:10D6600000012B78002BF0D02046084921F051F81A
:10D6700001F032FA2046064921F04BF80020EAE793
:10D680000C140220B0AE0700E05C012016B70700C2
:10D6900031B7070038B5124C124B2178124A0546B3
:10D6A000002918BF1A46114921F033F82378A3B98D
:10D6B0001EF0D3FD0E4BD3E90043A04299410CDA92
:10D6C0001EF0CBFD4FF47A73241A94FBF3F2284634
:10D6D00003FB1243074921F01CF8002038BD00BFAE
:10D6E0000C14022040B707004EB7070055B70700DB
:10D6F000E85C012070B707002DE9F0433F28ADF545
:10D70000805D06468846474D85B012D92B685F0775
:10D7100007D03F2301210093434A034628461EF0C9
:10D72000ACFD6FF0150420460DF5805D05B0BDE839
:10D73000F08341F6FC72C3018033934209D92B6810
:10D740005C07EED0034601212846384A1EF093FDBF
:10D75000E7E71A2003A905F0B3FE044648B12B6899
:10D760005807E0D0234601212846314A1EF083FDA8
:10D77000D9E777114FEA07394FF4805349460398A8
:10D7800004AA20F0DDFC044648B12B68590722D0DA
:10D790000346284A012128461EF06DFD1BE004AB1C
:10D7A00006F01F008022414603EBC01029F097FDD0
:10D7B0004FF480524946039820F0ECFC044670B1C7
:10D7C0002B685A0707D00346012128461A4ACDF88C
:10D7D00000901EF052FD039820F0B1FCA3E74FF437
:10D7E00080534946039804AA20F0BFFC044628B1A0
:10D7F0002B685B07EFD00346104ACBE7039820F075
:10D800009EFC2B6803F00703022B06D93346032145
:10D8100028460B4A00971EF030FD00F0E7FF044653
:10D8200081E700BF5C5601208FB70700B0B7070043
:10D830003CB60700D6B7070057B6070082B6070008
:10D84000F1B707002DE9F04F384F06463B780D46FB
:10D850001446A1B04BB93046354920F076FF4FF061
:10D86000FF34204621B0BDE8F08F1EF0F6FC314BAE
:10D87000C3E900013B78002BEDD0032D06D03046E4
:10D880002D4920F062FF6FF01504EAE7D4F8048018
:10D89000A1686A464046FEF7CBFA044628B1024624
:10D8A0002649304620F051FFDBE74FF0800A4FF069
:10D8B000FF3541F6FC79CA450BD80AF57A2292F871
:10D8C000800F02F57863FF2811D1B5F1FF3F08BF43
:10D8D00025460134402C0AF1800AECD16B1C19D189
:10D8E0003046174920F031FF6FF01B04B9E70130D3
:10D8F000C2B253FA80F7404633F802B0FBF718FA89
:10D900008345E6D15A464146B81C29F0D8FC002888
:10D91000DFD1254643462A4630460A4920F0F9FE23
:10D9200069462846FFF7E8FE04469AE70C140220F1
:10D93000B0AE0700E05C01201BB8070038B8070054
:10D940005EB807008CB807002DE9F0470546ADF535
:10D95000127D002846D0424800F0B6FF0446002859
:10D9600040D07F2127F076F94FF0000806460DF1F0
:10D97000C80902462146484629F0B1FC394809F851
:10D98000068000F0A1FF074660B3FF2127F062F98F
:10D9900004460DF5A47A02463946504629F09FFC0C
:10D9A0003146402302AA48460AF804801FF002FCD0
:10D9B000214606464023504612AA1FF0FBFB0446B0
:10D9C00086B1431E3F2B0DD82846FBF7B1F92649F7
:10D9D000074601A8CDF8048016F0BAF938B101A8BD
:10D9E00016F070F900200DF5127DBDE8F0874FF4B8
:10D9F0007A42002340F2052101A816F0F5F900282B
:10DA0000EDD1334640F2022102AA01A816F0C4F972
:10DA10000028E4D13B462A464FF4817101A816F054
:10DA2000BBF90028DBD1224622A901A816F026F96D
:10DA3000054601A816F046F9002DD3D1002318465B
:10DA400022A912AA11F8015B12F8016B013075408E
:10DA5000844243EA0503F5D1B3FA83F04009C2E7F3
:10DA6000B6B80700C2B80700090180082DE9F84FD1
:10DA70000446884693461EF0F0FBDFF804A10546F5
:10DA80009AF800900E46B9F1000F05D020463349B0
:10DA900020F03FFE002013E0314FD7E900309D42D7
:10DAA00071EB00000EDA4FF47A715B1B93FBF1F21D
:10DAB000204601FB12332B4920F039FE6FF00A009B
:10DAC000BDE8F88FB8F1010F06D82046264920F0AE
:10DAD00020FE6FF01500F3E7DBF80400FFF734FFDA
