:020000040000FA
:108000003DB8F396000000000002000018BB00001D
:108010000000000000000000000000000000000060
:10802000FFFFFFFFFFFFFFFFFFFFFFFFFFFFFFFF60
:10803000FFFFFFFFFFFFFFFFFFFFFFFFFFFFFFFF50
:10804000FFFFFFFFFFFFFFFFFFFFFFFFFFFFFFFF40
:10805000FFFFFFFFFFFFFFFFFFFFFFFFFFFFFFFF30
:10806000FFFFFFFFFFFFFFFFFFFFFFFFFFFFFFFF20
:10807000FFFFFFFFFFFFFFFFFFFFFFFFFFFFFFFF10
:10808000FFFFFFFFFFFFFFFFFFFFFFFFFFFFFFFF00
:10809000FFFFFFFFFFFFFFFFFFFFFFFFFFFFFFFFF0
:1080A000FFFFFFFFFFFFFFFFFFFFFFFFFFFFFFFFE0
:1080B000FFFFFFFFFFFFFFFFFFFFFFFFFFFFFFFFD0
:1080C000FFFFFFFFFFFFFFFFFFFFFFFFFFFFFFFFC0
:1080D000FFFFFFFFFFFFFFFFFFFFFFFFFFFFFFFFB0
:1080E000FFFFFFFFFFFFFFFFFFFFFFFFFFFFFFFFA0
:1080F000FFFFFFFFFFFFFFFFFFFFFFFFFFFFFFFF90
:10810000FFFFFFFFFFFFFFFFFFFFFFFFFFFFFFFF7F
:10811000FFFFFFFFFFFFFFFFFFFFFFFFFFFFFFFF6F
:10812000FFFFFFFFFFFFFFFFFFFFFFFFFFFFFFFF5F
:10813000FFFFFFFFFFFFFFFFFFFFFFFFFFFFFFFF4F
:10814000FFFFFFFFFFFFFFFFFFFFFFFFFFFFFFFF3F
:10815000FFFFFFFFFFFFFFFFFFFFFFFFFFFFFFFF2F
:10816000FFFFFFFFFFFFFFFFFFFFFFFFFFFFFFFF1F
:10817000FFFFFFFFFFFFFFFFFFFFFFFFFFFFFFFF0F
:10818000FFFFFFFFFFFFFFFFFFFFFFFFFFFFFFFFFF
:10819000FFFFFFFFFFFFFFFFFFFFFFFFFFFFFFFFEF
:1081A000FFFFFFFFFFFFFFFFFFFFFFFFFFFFFFFFDF
:1081B000FFFFFFFFFFFFFFFFFFFFFFFFFFFFFFFFCF
:1081C000FFFFFFFFFFFFFFFFFFFFFFFFFFFFFFFFBF
:1081D000FFFFFFFFFFFFFFFFFFFFFFFFFFFFFFFFAF
:1081E000FFFFFFFFFFFFFFFFFFFFFFFFFFFFFFFF9F
:1081F000FFFFFFFFFFFFFFFFFFFFFFFFFFFFFFFF8F
:10820000D891002019BD0000A506010005BD0000A1
:1082100005BD000005BD000005BD000005BD000056
:1082200000000000000000000000000041BE00004F
:1082300005BD000000000000E9BD000005BD000014
:10824000B9BF0000B9BF0000B9BF0000B9BF00004E
:10825000B9BF0000B9BF0000B9BF0000B9BF00003E
:10826000B9BF0000B9BF0000B9BF0000B9BF00002E
:10827000B9BF0000B9BF0000B9BF0000B9BF00001E
:10828000B9BF0000B9BF0000B9BF0000B9BF00000E
:10829000B9BF0000B9BF0000B9BF0000B9BF0000FE
:1082A000B9BF0000B9BF0000B9BF0000B9BF0000EE
:1082B000B9BF0000B9BF0000B9BF0000B9BF0000DE
:1082C000B9BF0000B9BF0000B9BF0000B9BF0000CE
:1082D000B9BF0000B9BF0000B9BF0000B9BF0000BE
:1082E000B9BF0000B9BF0000B9BF0000B9BF0000AE
:1082F000B9BF0000B9BF0000B9BF0000B9BF00009E
:10830000B9BF0000B9BF0000B9BF0000B9BF00008D
:10831000B9BF0000B9BF0000B9BF0000B9BF00007D
:10832000B9BF0000B9BF0000B9BF0000B9BF00006D
:10833000B9BF0000B9BF0000B9BF0000B9BF00005D
:10834000B9BF0000000000000000000000000000B5
:10835000000000000000000000000000000000001D
:10836000000000000000000000000000000000000D
:1083700000000000000000000000000000000000FD
:1083800000000000000000000000000000000000ED
:1083900000000000000000000000000000000000DD
:1083A00000000000000000000000000000000000CD
:1083B00000000000000000000000000000000000BD
:1083C00000000000000000000000000000000000AD
:1083D000000000000000000000000000000000009D
:1083E000000000000000000000000000000000008D
:1083F000000000000000000000000000000000007D
:10840000DEE61E284CBBCE8F025B00008C00000015
:1084100068BA000002000000008200000082000034
:10842000FFFF0291000000000000000000000000BB
:10843000000000000000000002000000DEE61E2830
:10844000EAAC45B8025B0000280000000310000001
:108450000100000001000000FF000000010000001A
:10846000D8910020DEE61E28EAAC45B8025B000089
:1084700028000000021000000000000001000000C1
:10848000FF00000001000000DC91002053B94AB950
:10849000002908BF00281CBF4FF0FF314FF0FF300C
:1084A00000F00CB8ADF1080C6DE904CE00F008F84E
:1084B000DDF804E0DDE9022304B07047704700BF37
:1084C0002DE9F04786468C460846089E15467446B8
:1084D0001946002B40F0C1808542B2FA82F245D99C
:1084E0004AB1C2F1200300FA02FC954094402EFAF2
:1084F00003F343EA0C0C4FEA154EA8B2230CBCFB65
:10850000FEF80EFB18CC08FB00F943EA0C43994532
:1085100028D9EB1808F1FF3704D2994502D9A8F100
:1085200002072B44A3EB0903A4B2B3FBFEFC0EFB32
:108530001C330CFB00F044EA0344A04214D92C196C
:108540000CF1FF3304D2A04202D9ACF102032C4457
:10855000241A43EA07401EB1D440002334607360FC
:10856000BDE8F0874746DDE76346F1E792BB431B72
:1085700001214FEA154EAFB2200CB3FBFEFC0EFBFF
:108580001C330CFB07F840EA0343984561D9EB180C
:108590000CF1FF3004D2984502D9ACF102002B4413
:1085A000A3EB0803A4B2B3FBFEFC0EFB1C330CFBD5
:1085B00007F744EA0344A7424DD92C190CF1FF33C5
:1085C00004D2A74202D9ACF102032C44E41B43EAD3
:1085D0000040C0E7C2F120039540944020FA03F127
:1085E0002EFA03F34FEA154E9040AFB20343B1FBAE
:1085F000FEFC0EFB1C10190C0CFB07F841EA0041B5
:10860000884522D969180CF1FF3004D2884502D977
:10861000ACF102002944A1EB08019BB2B1FBFEFCC6
:108620000EFB1C110CFB07F743EA01439F420ED9D6
:10863000EB180CF1FF3104D29F4202D9ACF10201D8
:108640002B44DB1B41EA004193E76046E3E76146C8
:10865000F7E76046A4E76346B8E7834206D916B950
:10866000002108467CE7C6E900E0F9E7B3FA83F7A2
:108670008FB9834201D3724508D8BEEB020460EB88
:10868000030301209C461EB9002169E73846FAE73A
:10869000C6E9004CF8E7C7F1200CBB400EFA07F51D
:1086A00022FA0CF42EFA0CF1BA401C4320FA0CF317
:1086B000B8404FEA144901431FFA84FEB3FBF9F8AE
:1086C00009FB18300B0C08FB0EFA43EA00439A45ED
:1086D00040D9E31808F1FF3004D29A4502D9A8F135
:1086E00002002344A3EB0A0389B2B3FBF9F809FBA8
:1086F000183308FB0EFE41EA03418E452CD9611860
:1087000008F1FF3304D28E4502D9A8F102032144B7
:1087100043EA0040A1EB0E01A0FB02984145CE4682
:10872000434602D306D14D4504D20138B9EB020EBF
:1087300068EB0403002EA7D0B5EB0E0261EB03013A
:1087400001FA0CFC22FA07F3F9404CEA0303C6E9EC
:10875000003199E74046C5E74346D9E7F0B5434BBA
:10876000434A87B0C3F800264921C3F8042641488C
:10877000C3F80826C3F80C26C3F81026C3F814263D
:10878000C3F81826C3F81C2607F058FE07F00FFAA6
:1087900000F084F878B14FF05023D3F800340BB1D7
:1087A000DB0708D54921344807F048FE02F0E4FA17
:1087B000324803F0F5F800F0ABFA054603A801F0E3
:1087C00021F80446284600F0B3FA2D4B1B68A3425B
:1087D00005D045212B4807F031FE07F042FB492127
:1087E000059A294807F02AFE039928484B7D0A7DFF
:1087F000C98A0091492107F021FE4921244807F048
:108800001DFE4FF420314FF4004004F0C9FD044632
:1088100020B145211F4807F011FEFEE702A99DF88F
:10882000100000F05FF8029B059D1D44039B1E890C
:1088300004F09EFDAF1901F0F7FB01F0C7FB01F05A
:10884000E1FB84F30B8884F30A88AB5983F308882F
:1088500084F31488BFF36F8FBFF36F8F7B689847E3
:1088600045210D4807F0EAFDFEE700BF00800150FA
:108870003546526E6E2F0100872F0100182A010025
:1088800008000020AB2F0100CE2F0100FD2F0100BA
:108890001B300100403001007330010073B5104CF3
:1088A000204609F03AFDC0B12569A6682B684FF44F
:1088B000803223F080532B601C2120463368984778
:1088C0002046736801A9984720B92B680198584041
:1088D000C0F30070003818BF012002B070BD00BFA7
:1088E000A0260100024608B538B1054800234521FD
:1088F00007F0A4FD6FF0150008BD0860FCE700BF9D
:108900009630010021B1012906D06FF015007047A3
:10891000044B53F830007047024B03EBC003586818
:10892000704700BF202A01002DE9F04F9B46FDB0A3
:108930007E4B0746DDE987893CA80E4614461D6834
:1089400004F04CFDB8F1000F07D0B9F1000F04DDC1
:108950004A4641463CA804F04FFD4FF000083389D9
:108960007289D6F80CA013449A44C2453ED80CA98B
:108970003CA804F047FD899B23B1202218460CA98E
:1089800007F0F0FE00232246009331464FF6FF73B6
:1089900006A807F00DF9804628BB214638460B9EF5
:1089A00000F0A0F986421ED84FF0FF36DFF880A114
:1089B000DFF880910DF1120304AA05A906A807F0BB
:1089C00045F900280FDB40F0A680059906A807F0BE
:1089D00089F910BB4FF6FF71BDF81200564A32F804
:1089E000023B8B4217D1514B1D6898E0869BAAEB46
:1089F0000809994528BF99465A464B4641462046A4
:108A000007F02AFD0028EED14A4659463CA804F05A
:108A1000F3FCC844A9E79842E1D1BDF81230102B0D
:108A200017D0222B53D0012BC4D1BDF81030202BEE
:108A3000D9D8204605991CAA07F00EFD0646002845
:108A4000D1D19DF810B0BBF1200F21D94FF0FF36E6
:108A5000B0E7BDF81070202FC5D13B4620460599E0
:108A60001CAA07F0F9FC0028BDD100F051F93A46E4
:108A700080461CA90CA800F0E5F80746404600F027
:108A800057F9DAF80030BB42ADD14FF0010891E759
:108A9000D9F80030294F0393039B9E42D6DA3CA8B5
:108AA00004F09CFC7A683CA8126857F8081B04F094
:108AB000A3FC14A93CA804F0A5FC5A461CA914A8C0
:108AC00007F029FE00283FF475AF0136E4E7731C78
:108AD0003FF470AFD9F80030B342B7DDBDF81030C5
:108AE000802B80D8204605991CAA07F0B5FC0028E9
:108AF0007FF479AF00F00CF9F6B207462021BDF8FB
:108B000010301CAA00960CA800F01AF8054638464A
:108B100000F00EF99AE7B8F1000F3FF464AF00F0EF
:108B2000FFF828467DB0BDE8F08F00BF04000020AC
:108B300008000020302A0100402F0100342A0100E3
:108B40002DE9F04796B016461D469DF87820384B23
:108B5000074653F8321003EBC2035B6801911868B3
:108B6000DFF8D0800144302302AA01A8D8F8009091
:108B700007F0EDFA002851D1DDE901431C442146FC
:108B800006AB03AA01A807F00AFB002846D1049A05
:108B9000072A43D12849059807F0BDFD00283DD19B
:108BA000079A082A3AD12549089807F0B4FDA8BBCE
:108BB000214602AA01A807F0DEFA78BBDDE901A38D
:108BC0000AEB0302944229D1412B27D135443023AB
:108BD000294603AA02A8029607F0B9FAE0B9DDE92E
:108BE000023213449D4217D32A4602A906A807F071
:108BF00087F888B92A4602A90EA807F081F858B963
:108C00009AF80030042B07D12021384606AB0AF130
:108C1000010204F0FDFB38B1D8F8009000F080F8B4
:108C2000484616B0BDE8F087054BD3F80090F5E74D
:108C3000342A010004000020C5300100BC300100CE
:108C40000800002070B5094B04461D6800239342BC
:108C500005D1074B1D6800F063F8284670BDE65C3F
:108C6000C85C8642F7D10133F1E700BF0400002061
:108C700008000020094A40000B7852F820108B426F
:108C800009D0013052F82000834214BF4FF0FF306A
:108C90004FF4C06070474FF4C06070473C2A010039
:108CA0001FB5582303FB0100046A1023A1686A461C
:108CB0002046103907F0D0FB034640B12278452109
:108CC000064807F0BBFB0024204604B010BD10226C
:108CD0006846034907F01FFDF6E700BFCD300100ED
:108CE0005E2F010013B508460C4607F03AF86A46B5
:108CF0000146204606F042FF30B10448452107F006
:108D00009DFB002002B010BD0098FBE7F930010088
:108D1000024B1868421C1A60704700BFF003002025
:108D2000024A1368013B1360704700BFF003002044
:108D3000034B1B68834201D007F093B8704700BF14
:108D4000F0030020034637B54FF40072084693F84D
:108D5000B84013490192620051F82250A8420ED146
:108D6000582101FB043201FB0434526A283401A962
:108D700007F0E4FB08B9019B236003B030BD01326A
:108D800051F82220904208D1582101FB043201FB06
:108D90000433126D03F15404E9E70120EDE700BF4D
:108DA0004C2A010070B590F8B850104E6D0056F87E
:108DB00025100446FFF7C6FF98B9013556F825106F
:108DC0002046FFF7BFFF054668B9582294F8B8302F
:108DD00002FB0343186A07F081FBC4F8B40028467D
:108DE00070BD0125FBE70925F9E700BF4C2A01000A
:108DF0002DE9F04F4FF02C095825044609FB01F9E5
:108E000090F8B8A085B005FB0A9303441E6A0F468C
:108E10003046904607F069FB94F8B83015FB03958F
:108E200025446B1E033513F8012F82422ED19D423B
:108E3000F9D1F7B13146204607F093F898F807309A
:108E4000042B10D1582294F8B830204602FB03437B
:108E5000196A07F086F860B9492194F8B8203148BA
:108E600007F0ECFA05E094F8B80004F0A3FB04283E
:108E7000E8D02D4B1C68FFF753FF204605B0BDE836
:108E8000F08F2A4B1C683DE0294A47E058212C22EC
:108E900001FB0AF302FB0733E5182869C206C8D4B0
:108EA000E258244B9A42ECD1EA682B899B18E8D20D
:108EB0006A89D218E5D2B3689A42E2D240F60C6BC6
:108EC00010EA0B0BDDD1FFF723FF0546FFF720FF6C
:108ED00058214FF480730AFB0191804621443246A9
:108EE00000932046144BCDE902BBCDF804B0FFF748
:108EF0001BFD04464046FFF71BFFFFF711FF284606
:108F0000FFF716FF0D4B1B68A342B4D0002FBBD058
:108F1000B2680021304607F0C9FA094A45210948DC
:108F20009EE700BF46310100000000200400002041
:108F3000343101003DB8F39692550020080000201E
:108F40003C3101008531010073B50D460021044616
:108F500090F8B8202846CDE9001106F0F3FF58B389
:108F600058235A43234EA358B34203D1204601AAA3
:108F700006F01FFF582294F8B83002FB0343DB6A67
:108F8000B34204D16A460121204606F012FFDDE912
:108F90000032934288BF0193019BAB6094F8B860A4
:108FA000154B9B5DBBB1012E1AD12046294600F01E
:108FB000BFFF304601F0BCFA11462046FFF770FEB5
:108FC000064605F1080106F0D7FEAB68304601936E
:108FD00007F041FAE2E729462046019A00F092FEA6
:108FE000064B1A68002A03DD5721054807F026FAC8
:108FF00002B070BD3DB8F39694560020C0480020E2
:10900000AD3101007FB51B4B90F8B82006460D46E8
:1090100013F8320001A901F0CDFC40BB019806F025
:10902000A0FED6F8B4100446284607F00AF8044417
:10903000019807F053FA0646019807F056FA0822FD
:1090400001460DEB020007F098FB2B7921468DF8C5
:1090500008300198334602AA07F013FA041E01985B
:1090600018BF012407F0F7F9204604B070BD0124B1
:10907000FAE700BF4C2A01002DE9F84F88469146D7
:109080009A460026DFF868B01A4C1B4D0B9B9E4297
:1090900001D300200FE00B9B40469F1BB7F5806F6C
:1090A00028BF4FF48067124A3B4606EB0A0107F0DF
:1090B000D3F910B10120BDE8F88F0A993B465A4612
:1090C0004846711807F0DDF90028F3D1C4F80056BE
:1090D0003E44C4F80456C4F80856C4F80C56C4F804
:1090E0001056C4F81456C4F81856C4F81C56CDE7E8
:1090F000F4030020008001503546526E2DE9F04FF8
:109100004FF0000B04460D4695B0DFF8B492DFF83F
:10911000B4A2CDF808B0BBF1010F84F8B8B036D9CD
:109120000026A94F17F8011B012918D13046FFF777
:10913000E9FB0EA9C0B201F03DFC0346002840F057
:10914000F7810E981946826807F0B0F903460028A7
:1091500040F0EE81324645219C4807F06FF9002E21
:1091600000F0E481029B002B00F0388200232C27C2
:109170005826012B84F8B83000F23082E21892F8B9
:10918000B910002900F0DA810133DBB2F1E704EB1A
:109190000B0292F8B960002E46D14FF0580808FB38
:1091A0000B4109EB0B324A6202F500520A65314667
:1091B0005846FFF7A7FB202394F8B810074618FB82
:1091C00001312C2303FB0611C0B2214401F0F2FB54
:1091D00048B15B463A464521CDE900607C4807F03E
:1091E0002DF906F03EFE01277EB12046FFF7DAFD9D
:1091F000064660B900222046114606F063FEC8B15B
:10920000572194F8B820734831E03E46CFE74FF439
:1092100000725721704807F011F994F8B830012E08
:10922000234483F8B070E5D194F8B83001335FFA85
:1092300083FB70E7204606F019FF002807DD0122B6
:1092400094F8B8300AF833200AEBC303586020467C
:1092500006F00AFF68B10AA806F06BFE0146204638
:1092600000F052FB60B1572194F8B8205B4807F03A
:10927000E5F8012294F8B830234483F8B020D3E70E
:109280000AA806F05FFE80F001010AAA2046C9B2D2
:1092900006F018FE02460028B2D10AA806F052FED7
:1092A000039000284CD194F8B8305BBB20460AA943
:1092B000FFF74AFE94F8B8009DF82F30221882F884
:1092C000B030033B012B08D800F078FB28B1FF2217
:1092D00094F8B830234483F8B0209DF82F3094F8E8
:1092E000B800023B022B1ED800F052FBD8B1FF227F
:1092F00094F8B830234483F8B0204521384807F06B
:109300009DF8FEE794F8B020042A04BF012284F8F7
:10931000B020012BCAD094F8B130042BC6D1012360
:1093200084F8B130C2E794F8B830234493F8B030F1
:10933000FF2BE2D000222046114606F0C3FD98E73D
:109340009DF82FB0BBF1010F40F0D680582194F862
:10935000B830244F0792FA5401FB0343224AD96ADA
:10936000D3F84C80914279D1998E0423404607AAC4
:10937000194407F071F8C8B34FF0050894F8B830F5
:10938000234483F8B08094F8B83073B1E21892F8AF
:10939000B020012A3FF448AF042A0DD094F8B02041
:1093A000042A02D1012284F8B020234493F8B0307B
:1093B000023B022B3FF638AF039B029334E700BF1A
:1093C000F4070020F447002092560020F9320100F3
:1093D000DC3101006B3201002932010097320100BB
:1093E000C1320100945600203DB8F39694F8B800BD
:1093F000A14E012851D1327802B93070325C0AB9DD
:10940000012232540021FFF77DFA0EA9C0B201F00B
:10941000D1FA83460028AFD10799A1F5E032B2F521
:10942000A03F40D894F8B8204FF00108002AA5D0FA
:1094300007F802800E9A5268B2F5004F02D0B2F5DA
:10944000E03F03D1012194F8B820B95494F8B82032
:109450000221012A4CD131700221B15494F8B80094
:1094600004F0A8F8831E022B804687D8FFF750FC33
:10947000012107460AAA2046FFF7BAFC8346384670
:10948000FFF756FC7D4B1B689B453FF477AF7C4B49
:109490001B689B457FF470AF27E07278024308BFDA
:1094A00086F801B0AAE7A1F50042B2F5A03F14D8B2
:1094B0004521744806F0C2FF5946D8F808204046B6
:1094C00006F0F4FF452194F8B8206F4886F800B004
:1094D00086F801B006F0B2FF4EE70E98426891425E
:1094E00003D3806802449142A4D94FF0010845E7B4
:1094F000002AB1D17170AFE7FFF70AFC01210746DE
:109500000AAA2046FFF774FC80463846FFF710FC95
:109510005A4B1B68984518BF052294F8B83008BF0D
:109520009DF82F20234483F8B0202CE70126F9E58D
:1095300032464521554806F081FF10E692F8B010FA
:109540000EA801F0FB01013918BF0121794306FB88
:10955000031203FB061101232244D2F82080214488
:1095600000934246402306F023FB002869D10023E4
:109570000DF1160206A90EA806F068FB00282DDBE7
:1095800040F03481BDF816300C2B5CD14046069972
:1095900007AA06F061FF08BB9DF81C30012B1DD8FF
:1095A000E21892F8B02008A9023A022A94BF2C20AF
:1095B000002006FB03001430204406F0A4FC002821
:1095C000D5DA94F8B830234493F8B020012A36D085
:1095D000023A012A02D8012283F8B0200026012E87
:1095E00084F8B86034D90023244EDFF8A480244FD7
:1095F0000E93012B84F8B83040F2A6800E9B022B0C
:1096000001D006F02EFC94F8B930002B40F0E68033
:10961000582606FB034284F8B830106A06F0ACFA0C
:10962000287194F8B83006FB03431B6A5B68AB6093
:1096300094F8B83003FB06462E60104BA0E00422DD
:10964000CAE70328CAD140F20113A4F8B030C5E735
:10965000A21992F8B930002B69D10AA806F069FC6A
:1096600092F8B0308DF82F30013B042B68D8DFE83A
:1096700003F05111113663009256002008000020BB
:1096800000000020CD320100F93201002433010036
:1096900004000020574B9F5D0FBB4FF0580816FB8E
:1096A00008F000F1140140302144204406F02BFC66
:1096B000002814DA324649214F4806F0BFFE94F8DC
:1096C000B830394608FB0343D86C826806F0EEFEDA
:1096D000012294F8B830234483F8B0201AE02046E1
:1096E0000AA9FFF731FC94F8B800231893F8B030BA
:1096F000DA1E012A0CD800F061F920B994F8B800FC
:1097000000F046F930B194F8B830FF222344E3E783
:10971000022BF3D094F8B830234493F8B030FF2BE9
:1097200005D14521354806F089FE06F09AFB94F8EC
:10973000B8600136F6B252E7304600F03FF9E1E793
:10974000FF2382F8B030E5E7234493F8B9208DF881
:109750001C209DF81C1001F0FF0239B10E9B013353
:109760000E9394F8B8300133DBB242E793F8B0308F
:10977000012B07D01146204606F0A4FB10B1204B68
:109780001D681BE094F8B830012BE7D0FFF7C0FA52
:109790000022824611462046FFF72AFB81465046AA
:1097A000FFF7C6FA3368994506D1D8F800309945D5
:1097B00002D03B689945D1D1D8F800501022002141
:1097C0000AA806F0DAFF204606F05EFBFFF7A8FACB
:1097D000284615B0BDE8F08F012319E794F8BA3098
:1097E000002BF9D0022384F8B83026E794F8B8307B
:1097F000CAE400BF945600205B330100C13201006F
:109800000400002070B50B4E0446BC2200213046F7
:1098100006F0B3FFFFF77CFA214605463046FFF716
:109820006DFC04462846FFF783FAFFF779FA2046D5
:1098300070BD00BF044800202DE9F8432E4F3B784F
:1098400033BB3C7A24BB2D4DDFF8B480012C85F866
:10985000B84015D8582606FB045208EB0433002103
:109860005362204603F500531365FFF74BF895F854
:10987000B810C0B206FB0151203101F09BF850B185
:109880001E4806F001FBBC2200211C4806F075FFB3
:109890001948BDE8F88301212046FFF733F895F811
:1098A000B810C0B206FB01514C3101F083F800281A
:1098B000E6D195F8B860DFF84C907600284659F864
:1098C0002610FFF73FFA88B9013659F826100B48E1
:1098D000FFF738FA50B9094806F0C8FB0028C1BFA5
:1098E000012307F8343007EBC404606095F8B840F2
:1098F0000134E4B2AAE700BFF44700200448002086
:10990000F40700204C2A010073B50D46064600F00E
:109910003FF90446E86078B3022832D196F8B820BF
:109920001A4B01A913F8320001F044F858BB2A463B
:109930003146019800F0C4F80446D0B9019807F008
:10994000D0FE012301460DF10302019806F084FDCB
:109950000446A0B9012201980DF1030107F0D5FEDC
:1099600010B101238DF803309DF8033003F00F038D
:10997000EB71019806F06FFD204602B070BD012426
:10998000F7E70724F8E70124F6E700BF5C2A0100A7
:1099900013B5094B01A913F8300001F00BF848B9D1
:1099A000019807F049FF0446019806F054FD20464F
:1099B00002B010BD0124FAE75C2A01001FB50F4B6D
:1099C00001A913F8300000F0F5FFA8B9019802A929
:1099D00003F09AFD044668B99DF80B30032B03D1C0
:1099E000019807F0F7FE0446019806F034FD204682
:1099F00004B010BD0124F7E70124F8E75C2A010058
:109A00002DE9F34105460C4617461E460BB90021C9
:109A100027E0184606F096FA0028F8D1284695F86F
:109A2000B810FFF73DF918B9012002B0BDE8F08188
:109A300001A906F0A1F90028F6D10199284606F0FF
:109A4000F1FA582295F8B83002FB03535B6A596863
:109A50007379012B1DD1002CD9D13368834298BF73
:109A60000021582295F8B83053432C2202FB0433CE
:109A70001D443A462023286A06F0EEFC0028D3D184
:109A8000002ED2D038680D4BC01A18BF4FF0FF30EF
:109A9000CBE7022BBBD13368012B05D98342B6D863
:109AA000B4FA84F46409B2E7B1D1002CD9D0012C06
:109AB000ADD13479023C18BF0124A8E73DB8F39634
:109AC0002DE9F04F0C460746014685B094F8B800E2
:109AD0001646FFF7CFF8051E53DB3846D4F8B440DE
:109AE00006F03FF95FFA84F94FF0000A4FF0010BDE
:109AF0004FF0FF346B1E09FB0308A5B9BAF1010F43
:109B000003DD4521214806F099FC631C07D0B4F51C
:109B1000007F2ADA40F2011301343460B380284612
:109B200005B0BDE8F08F6B1E009341460123384617
:109B30000DF10F0206F090FC031E019323DB0122BE
:109B400038460DF10F0107F0E0FD019B40B15B4588
:109B500001D00AF1010A9B46009DA8EB0908CCE759
:109B6000B4F1FF3F08BF2C46F5E70223A4F50074CB
:109B70007371631004F001040133013433603471F4
:109B8000CDE70725CBE70125C9E700BF96330100E4
:109B9000582330B590F8B85089B003FB050304464C
:109BA00004A9186A03F0B0FC9DF81020012A43D0E4
:109BB000264B2749032A08BF0B469DF8132049214D
:109BC00002929DF81220234801929DF811200092E4
:109BD000214A06F033FC582303FB054406A9E06C38
:109BE00003F092FC9DF81820012A27D0174B184942
:109BF000032A08BF0B469DF81B20492102929DF8BD
:109C00001A20144801929DF819200092134A06F078
:109C100015FC9DF81030012B12D19DF81230032B4A
:109C20000ED19DF81830012B0AD00D48492106F0BD
:109C300005FC022009B030BD0A4BBEE7094BDAE74C
:109C40000948492106F0FAFB0020F3E7B933010087
:109C5000C2330100D6330100C833010017340100BC
:109C600027340100BD3301004634010070B54B6854
:109C700014461E4A03F0FF23934206460D4686B063
:109C80002FD10B68012B2CD1204604A903F03CFCFA
:109C90009DF81020012A26D0154B1649032A08BF2B
:109CA0000B469DF81320492102929DF8122012487C
:109CB00001929DF811200092104A06F0BFFB9DF81A
:109CC0001030032B0DD12146304606F04AF92046CC
:109CD00007F080FD2046A96806F05CF8204603F0F6
:109CE000F3FB06B070BD064BDBE700BF00010004CC
:109CF000B9330100C2330100D6330100173401002B
:109D0000BD3301002DE9F04F04461646582789B0AF
:109D10000D468248492106F091FB3146204606F067
:109D200081F994F8B830834607FB03435B6A284601
:109D30005E6806F007F910B3D4F8B40006F00CF82A
:109D400094F8B83007FB03439F6A0023013F334474
:109D5000984201D9013FFAE7BB4510D3572170481B
:109D600006F06CFB07FB06F357210BFB06626D4800
:109D700006F064FB0123EB7109B0BDE8F08F94F8A5
:109D8000B830DFF8A4815F0018F8330006A9013766
:109D900000F010FE07A918F8270000F00BFE294676
:109DA0002046079AFFF762FF6B79012B50D15F467F
:109DB000DFF878A146E02A68C2F101035B449F42C4
:109DC0003FD8582194F8B830012A01FB03435B6A5D
:109DD000196853F8370003EBC70353F8083CA0EBAE
:109DE0000109A3EB0103049311D1079B0393EB68D3
:109DF000022B08D04146204606F0B3F82A464146D9
:109E0000204606F0EBF82046039906F0AAF8324601
:109E10004946404606F0A3F8049B42464146204688
:109E2000CDE90096FFF728F929462046FFF7EAF822
:109E30002B6801332B6020B1DAF800300133CAF807
:109E40000030013FDDF81880002FB4D101232B60D2
:109E5000022301276B71BB45DDF8189006D24846F6
:109E600006F0F9FA079806F0F6FA85E72B689F42A4
:109E700052D3582394F8B820DDF81CA003FB02420B
:109E8000516AFB0051F83700126D04900868083BD6
:109E9000C9580390D0581368A0EB03082B79012B05
:109EA00038D1039B3246C91A4846059106F057F847
:109EB000059943464A460091204651460196FFF7D0
:109EC000DBF829462046FFF79DF802232B7118B1D5
:109ED000164A13680133136032464146504606F075
:109EE0003EF8DDE9032349469B1A20465246CDE958
:109EF0000086FFF7C1F829462046FFF783F82B6854
:109F000001332B6001232B7130B1084A13680133F0
:109F1000136001E0022BDFD001379CE75D340100C4
:109F200086340100B53401006C2A0100C0480020CD
:109F30007FB5044649211E4806F080FA58220025C4
:109F400094F8B83002A902FB03431B6D07205E683A
:109F500000F030FD94F8B820164B03A903EBC203C0
:109F6000187900F027FD02980021826805F0F7FFBC
:109F7000029A039993682046019300952B46FFF7B8
:109F80007BF80399204605F0ECFFDDE902309A6882
:109F9000836832449A4228BF1A46294605F0DFFFFB
:109FA000029806F058FA039806F055FA04B070BD0E
:109FB000E63401007C2A01000A4619B1024B002157
:109FC0001B681847704700BF0C000020BFF36F8F5D
:109FD00072B600234FF0FF30094A03F1200101332C
:109FE000102B42F82100F8D100234FF0FF30044A33
:109FF00003F160010133102B42F82100F8D17047C2
:10A0000000E100E0002318460649D1F89020C2F391
:10A010000722934200DB7047C1F89830C1F8A000D6
:10A020000133F6E700ED00E02DE9F8434FF0FF358E
:10A0300001274FF00008204BDFF880905F60C3F8E5
:10A040004853C3F8085303F580535F60C3F848537F
:10A05000C3F8085359F8044B002644F30730C4F8FA
:10A06000085301F00DFF80226760C4F84C61D4F8FA
:10A070004C31C4F81061D4F81031C4F84461314651
:10A08000D4F84431A018C4F8006506F076FB8022AD
:10A09000314604F5C07006F070FBB8F1000F08D02F
:10A0A000074BC3F808554FF05023C3F80853BDE8D9
:10A0B000F8834FF00108CDE700400150902A0100DD
:10A0C00000700150014B1B68184700BF10000020B2
:10A0D00007B50B46002102460091034800F006F840
:10A0E00003B05DF804FB00BFC5A000002DE9F04FF0
:10A0F00082464FF000098DB01D46531E0191039317
:10A10000039B58785C1C252819D100204FF0FF389C
:10A110001E4644460346023602903178039639299A
:10A1200055D81F2914D8002900F0EF810199252066
:10A13000D04701993078D04709F10209E0E70028BB
:10A1400000F0E3810199D04709F101090394D7E7B1
:10A15000A1F12002192AE9D801A757F822F000BF7F
:10A16000C9A100002DA100002DA10000C9A100007F
:10A170002DA1000049A200002DA100002DA100008A
:10A180002DA100002DA1000095A20000C9A1000092
:10A190002DA10000A9A2000055A200002DA10000E1
:10A1A00063A2000083A2000083A2000083A200003B
:10A1B00083A2000083A2000083A2000083A200000B
:10A1C00083A2000083A2000008460136A5E75829B3
:10A1D00000F0EB80A1F16302D7B2172FA6D8172A9F
:10A1E000A4D801A757F822F051A40000CFA2000084
:10A1F0002DA100002DA100002DA10000AFA20000A4
:10A20000CFA200002DA100002DA10000AFA20000F0
:10A210002DA100002DA100002DA1000085A30000AC
:10A220002DA100002DA1000025A400002DA10000FB
:10A23000CFA200002DA100002DA1000085A30000E9
:10A240002DA10000AFA2000025200199D04709F1FF
:10A25000010955E7029A4FF0000802F0FE0202924F
:10A26000B3E7002C0DDAB8F1000F0DDA029A002ADC
:10A2700000F043810A2224EAE47402FB0414303C17
:10A28000A3E7B8F1000FF5DB0A2202FB0812A2F1E6
:10A2900030089AE7B8F1000F55F8042B80F22F81AF
:10A2A000002A80F22E815442022202928DE7682910
:10A2B00003D1682B06D1482387E76C2902D16C2B88
:10A2C00000F02181002B7FF431AF0B467DE77A2B24
:10A2D00006D1752955F8046B14D14FF0000B0CE032
:10A2E0006C2BF6D04C2BF4D1073525F007037529DC
:10A2F00003F10805D3E9006B06D120283BD1854F37
:10A30000013C09E04FEAE67BBBF1000FF5DA76424B
:10A31000814F6BEB4B0B013C0DF12D03059300239B
:10A320000493304659460A220023FEF7AFF8059BF6
:10A33000B446303203F8012D5A460593049BBCF114
:10A340000A0F8B4672F1000203F1FF3106460491B9
:10A35000E7D2C3F1010B30330DEB0306B8F1000F68
:10A36000A6F104066DDA029BD9077DD4A8EB0B0396
:10A37000A4EB0B0413E02B280ABF684F684F04F1CD
:10A38000FF34C9E770290FD155F8042B0023FAB91F
:10A390006FF004034FF0050B614F624E053C029ACB
:10A3A000920770D4A04666E078216C2B03D100237D
:10A3B00055F8042B08E04C2BF9D1073525F007039D
:10A3C0001D465B6855F8082B232825D1880621D522
:10A3D000554F023C002601F06001A1F1390B0DF14F
:10A3E0002D0E02F00F01092988BF594430310EF8B3
:10A3F000011D102A4FEA121141EA03714FEA131CA2
:10A4000073F1000306F1FF3008D2C6F1010B06F12B
:10A410003003A1E7454FDCE7414FDBE706460A463C
:10A420006346DEE755F8046B304606F06DF9B8F187
:10A43000000F834602DB4045A8BFC3464FF000082B
:10A44000374FA8EB0B03002B92DDA4EB0804A6E723
:10A4500055F8043B4FF0010B8DF81830304F4FF09A
:10A46000FF33013C06AE9AE7A046EAE702932020BC
:10A470000199D047029BB8F10108F7D524EAE472AC
:10A48000013C9144A41AB84606E004930292019953
:10A49000D047029A049B9046424612F8010B0028CE
:10A4A000F3D11A46013A15D5002BACBFC7EB030711
:10A4B0007F425B46013B15D5BBF1000FA8BF5F444F
:10A4C00026464F44013E14D5002CA8BF3F1907EB88
:10A4D000080915E60493029230200199D047049BA5
:10A4E000029ADFE70293019916F8010BD047029B0D
:10A4F000E0E701992020D047E4E70122D5E6904625
:10A5000063E6144661E64C235FE648460DB0BDE8BD
:10A51000F08F00BF6C3501006A3501006E35010017
:10A52000F830010076350100703501007335010007
:10A53000044608B5EFF31183202383F31288BFF399
:10A540006F8F02F015FF204601F074FD024805F000
:10A5500086FE06F0BDF8FCE77C3501002DE9F043EE
:10A56000079D15B91560002012E00324B5FBF4F433
:10A5700004EB4407BD4218BF0134B4F1804F09D247
:10A58000A40001348C4200D838B96FF00B0014607D
:10A59000BDE8F0834FF0FF34F7E704460021DFF811
:10A5A000B4E0B94203F1030C04F104062BD3A94231
:10A5B000274623D201F1010CAC451F7828BF0023A8
:10A5C00024494FEAA70E38BF5B7811F80EE0AC457E
:10A5D00084F800E001EB131E2EBF3D239B0003F027
:10A5E0003C034FEA071738BFCB5C07F030071EF873
:10A5F0000770A3703D2367703746E3700023381A55
:10A6000010603B70AFE71CF8034C1CF8023C4FEAAB
:10A61000A4091EF8099024011CF8018C04F03004F0
:10A6200006F8049C0EEB131919F804409B0006F879
:10A63000034C03F03C030EEB9814E35C08F03F0876
:10A6400006F8023C1EF80830344606F8013C033197
:10A650006346A6E7253601002DE9F04300273C4676
:10A660003D46DDF81CE0DFF8288175451FD3E4BBCB
:10A6700000201460BDE8F0830136764533D013F82E
:10A6800006C0BCF1200FF7D0AEEB0609B9F1010FFF
:10A69000A6EB05050DD0BCF10D0F0AD103EB0609A1
:10A6A00099F80190B9F10A0F6ED1751CDDE72E46BD
:10A6B000E3E7BCF10A0FF8D02DB9BCF13D0F05D18D
:10A6C0000137022F0DD96FF01500D3E71CF0800F72
:10A6D000F9D118F80C507F2DF5D03F2D01D8002F5F
:10A6E000F1D10134E1E73546C1E74FF0060C04F043
:10A6F0000706E4080CFB06F60CFB04F40736E41B23
:10A7000004EBD60470B18C420CD800270146032616
:10A710003C46DFF87CE0DFF87C801D449D4205D19B
:10A720000C1AA5E76FF00B001460A3E713F8019B68
:10A73000A9F10A0C5FFA8CFCBCF1160F04D848FA98
:10A740000CFC1CF0010FE9D01EF809C00134BCF16B
:10A75000400F08BF013E0CF03F0C042C4CEA871759
:10A76000DCD17EB13C0C012E0C7002D101310024F1
:10A77000D4E7022E4FEA17244C7016BF8F700231B7
:10A780000331F4E73446C9E7002DA2D09BE700BFB0
:10A79000A5350100F6FFBFFF2DE9F047058B044604
:10A7A0002807904611D4022905F0070540F0CC8017
:10A7B000204605F06BFD78B10138218B042811D8B3
:10A7C000DFE800F0C2106D85950001290CBF45F04F
:10A7D000100545F02005258388F31188BFF36F8F9E
:10A7E000BDE8F08701F0070AAA4500F0A580002720
:10A7F000B9463E46A368002B00F0BC8041F008013A
:10A80000218388F31188BFF36F8FA168002900F0BE
:10A81000BA800D68002900F0B680334652462046C3
:10A82000D1F80480C047002D76D02B6829461D46FC
:10A83000F0E701F007035A1F012A1BD8002221F07C
:10A840000701062B276889B2C4E9002209D13B46DB
:10A8500003E0628B013262831B68002BF9D141F067
:10A8600002012046218305F011FD00287AD041F035
:10A87000200176E0042B0AD121F0070189B220469D
:10A88000218305F003FD10B141F020012183218BCC
:10A8900001F0070AAA454FD00027B946AAE7236965
:10A8A00021F0070141F00601062DD3F80090218325
:10A8B0002DD1B9F1000F3FD041F00801218388F379
:10A8C0001188BFF36F8F20463949C84729E021F02E
:10A8D0000701236941F0040189B2042DD3F80490E3
:10A8E0002183E6D000274FF0040A3E4682E721F09C
:10A8F0000701236941F0050189B2052DD3F80890BD
:10A900002183D6D000274FF0050A3E4672E7002784
:10A910004FF0060A3E466DE72B4687E7B9F1000F78
:10A92000D1D1EFF31188202383F31288BFF36F8F07
:10A93000238B23F008032383258BEA062ED525F0ED
:10A940001003238305F007056669218B002EBFF6EF
:10A9500070AF00232768C4E9003321F0070141F0FC
:10A9600001012183218B4FF0000901F0070AAA455C
:10A970007FF440AF002F9CD041F00801218388F381
:10A980001188BFF36F8F002FC8D03D68394633461A
:10A990005246204605F0A6FC2F46F4E7AB067FF5AD
:10A9A0001BAF25F02003238305F0070500E700BF58
:10A9B0001103010070B5104B0D461C68B4B10F4B6C
:10A9C000196800238B4202DB6FF0010070BD224644
:10A9D00012F8106B864202D014460133F2E7E068A9
:10A9E00007F09BFC28B100202C60EFE76FF00C0013
:10A9F000ECE76FF01200E9E714000020982A01004C
:10AA000010B5436888B0029383680C46CDE90332E1
:10AA100000230A68C068CDE90623054901AA059309
:10AA200005F083FF079808B9059B236008B010BDA7
:10AA3000F904010008B5054805F011FC044805F0CB
:10AA40000EFCBDE80840034805F009BC653601006E
:10AA500096360100C9360100014804F0D5BE00BF9A
:10AA6000AC2C010038B5044618B90F4B0F485B6891
:10AA700098476168B1F5683F10D0B1F5680F0DD007
:10AA80000B4DA9420AD011F46861206807D0014635
:10AA9000084807F09DFC00232360656038BD142240
:10AAA00005F06BFEF9E700BF6C010020F7360100EE
:10AAB0002C5F5CA9C44D002008B500B34368B3F512
:10AAC000683F0CD101220368D3E8EF1F002903D1AE
:10AAD000C3E8E02F0028F7D10DD1002008BD094AB6
:10AAE00093420AD000684FF0FF324FF0FF3304F07A
:10AAF0000BF80028F1D00448F0E70448EEE76FF4C3
:10AB0000E040EBE72C5F5CA9E98FFFFFEA8FFFFFD6
:10AB100008B5B8B14368B3F5683F0CD100220368AB
:10AB2000D3E8EF1F012903D1C3E8E02F0028F7D1B4
:10AB30000BD1002008BD074A934208D0006804F0FA
:10AB40005BF8F6E76FF4E040F4E70348F2E7034808
:10AB5000F0E700BF2C5F5CA9E98FFFFFEA8FFFFFE2
:10AB600010B5044618B91D4B1D485B6898476368CB
:10AB7000B3F5683F2FD0B3F5680F2CD0194A934234
:10AB800019D1236803BB4FF0FF324FF0FF3321464A
:10AB9000154803F08BFF08B923681BB90F4B134806
:10ABA0005B68984714220021206805F0E6FD4FF409
:10ABB0006863636008E0B3F5683F0DD83A2B03D0B3
:10ABC00040F6BA629342DED1206807F04BFC63681E
:10ABD00043F03A03636010BD054AF3E76C010020BF
:10ABE000F73601002C5F5CA9C44D00201D37010021
:10ABF0003A00003A08B5064940231422054807F0F8
:10AC0000D9FBBDE808400449044804F06FBE00BF0A
:10AC1000C4480020C44D0020B42C0100C82C010001
:10AC2000F7B5254E30688368DB6B03B19847306811
:10AC30008368DB6A002B31D1204C214D306883685A
:10AC40001B69002B2DD001220DF107019847012827
:10AC500027D1236843B92B682BB369681A688B42E4
:10AC60002A6000D16A602360164A9DF807001188A7
:10AC70007F2904D823684F1C0B44178018720A28B8
:10AC8000DCD1002023681188186059600E494D6896
:10AC900075B9C1E9003310802060CEE798470028DD
:10ACA000CAD103B0F0BD4521084805F0C7FBF8E75D
:10ACB0002B604B60EFE700BF38520020E04D0020D2
:10ACC000F04D002090550020E84D00204A3701004B
:10ACD00010B5044B044618688368E1B25B68984776
:10ACE000204610BD38520020F8B5054616460846E5
:10ACF000EFF31187202383F31288BFF36F8F1B4973
:10AD00000B684BB11A4C62689A4205D000221A6057
:10AD1000626862B9C4E90033164A136853B987F30D
:10AD20001188BFF36F8F18460B603360F8BD136056
:10AD30006360F1E7D2F804C01C686345146008BF83
:10AD4000546087F31188BFF36F8F5C680B60A0427B
:10AD5000D8BF00F1FF3403F108012246284605F070
:10AD600001FD0023601C2B550123DEE7E44D00208C
:10AD7000F04D0020E84D0020002313B51C4620496B
:10AD8000204AC1E90033C2E900331F4A4868146011
:10AD900020BBC1E900220133082B02F18802F5D162
:10ADA0001A4C1B48206007F0B8FA28B32068836863
:10ADB00023B11B6C13B100221649984720688368A1
:10ADC000DB6A0BB1984760B1206883681B69002B70
:10ADD000FAD001220DF107019847F4E702604A60BA
:10ADE000D9E700220C4B20681A8083681B6A03B1E4
:10ADF0009847002002B010BD4FF0FF30FAE700BFC7
:10AE0000F04D0020E84D0020F84D00203852002081
:10AE1000B426010021AC00009055002041F204430B
:10AE20002DE9F043ADF21C4DADF8083040F60613A5
:10AE30000025ADF80C30DFF81091444BD9F8001024
:10AE40001B68434E4D70A3EB06080B7828465A1C2E
:10AE500062F302030B7098FA98F34B808B880822F8
:10AE60005BBA8B8005F0E5F931464246ADF810003B
:10AE700005F0DFF902271FFA88F440BA04F10A034B
:10AE80005BBA0222ADF810000DF1120106A8ADF870
:10AE9000123005F067FC0822D9F800100DF11A00F5
:10AEA000ADF8127005F05EFCBDF8120006AB08307C
:10AEB00080B231464246ADF81200184405F052FC0B
:10AEC000BDF812303A461C44A0B22C4606ABADF891
:10AED000120004A9184405F045FCBDF8123040F2F8
:10AEE00049213B449BB2ADF81230009305AA06AB52
:10AEF00073A8FFF733FB059B164E174FADF81230C2
:10AF0000BDF81230A34203DC0DF21C4DBDE8F08306
:10AF1000336802215B68A4B903A89847BDF81250B2
:10AF200033682D1B7C2DA8BF7C2573AA10192946D8
:10AF30005B6898473368012138465B682C44984722
:10AF4000DEE702A8E9E700BF9C520020545200202F
:10AF500096560020A0520020F730010038B5054673
:10AF60000A4C0A21204607F0A2F90222204608498D
:10AF700007F090F92946204607F069F920460A2192
:10AF800007F09DF9BDE83840FFF748BF5452002054
:10AF90008837010073B583680C469A42064611460D
:10AFA00013D2944213DC6A4604F0E8FD68B9DDE987
:10AFB00000351D442A1B2146304605F077FA02462B
:10AFC00040B14521044805F039FA6FF015042046D8
:10AFD00002B070BD2C46FAE78B3701002DE9F0472F
:10AFE0004FF0FF34D4B00B4605940694079401212A
:10AFF00000240AAD0246C5E9004430A80091CDE91D
:10B00000014404210894099406F015FE40222146CB
:10B0100020A805F0B2FB8B4B03211C9305230422CF
:10B020001D93894B0DF11809CDE91E39874B8848CE
:10B030002193884B05AFCDE92335874B07AE269387
:10B04000864BCDE92B01CDE92836CDE92D37279167
:10B0500009AB1CA930A8229205F0C8FA20B303243A
:10B060000A217F4807F023F97E4902227C4807F035
:10B0700011F921467A4807F0EAF84CB974490322DD
:10B08000774807F007F9784B7548196807F0E9F831
:10B090000A21734807F013F9FFF7C0FE089805F07E
:10B0A000DAF954B0BDE8F0873B68D5E900845A1C52
:10B0B000D5D0B8F1000FD2D06C4A33B9D9F800100E
:10B0C000B1F1FF3F18BF0B461360106804F047FD55
:10B0D00008A9C0B2FFF76EFC0028C0D13B68624DE2
:10B0E000002B4BD1089F2B603846D7F8089004F00E
:10B0F00038FE5F4A0146384604F040FD28B145213C
:10B100005C4805F09BF90124AAE733684B45A6D8B3
:10B11000594A1060594A13602A68574E22443168D0
:10B120000898013AFFF736FF0028306097DB08984F
:10B1300005F0D4F9B4FBF0F303FB1046DFF83C91C3
:10B140002B68A71B1C44D9F8003008989C4238BFD4
:10B15000002605F0C3F9012806D9089805F0BEF9C4
:10B16000013818EA000F4AD13B4642462968089840
:10B1700005F087F900287FF472AF2FE02A68934228
:10B1800001D000246CE73D4A234412689342C3D99E
:10B1900065E7BA45089828BFBA4605F0A6F94022E7
:10B1A00001460CA805F0E9FA524641460CA805F004
:10B1B000D9FA5346296808980CAA05F062F90446A2
:10B1C00000287FF44DAF2B68D04453442B60A7EB8D
:10B1D0000A07089805F082F9B842DAD996B92B68BF
:10B1E000D9F8002033443B4493422B60C9D1204B13
:10B1F00008981A681146FFF7CDFEC40F30E74FF0EC
:10B20000400AE6E7089805F070F9082201460CA804
:10B2100005F0B3FA324608EB07010CA805F0A2FAD4
:10B22000DDF82080296840467C1805F057F9214652
:10B2300003460CAA404605F024F900287FF40FAF1E
:10B24000CDE700BF21340100251F0100AD3701000B
:10B25000B63701002F1F0100B23701002B1F01007C
:10B2600054520020883701004C52002050520020D8
:10B2700044520020F9300100405200203C5200208E
:10B28000F0B50C68164F85B002380D46C4F58061E4
:10B290000090144B381903AA0131FFF7DDF9044679
:10B2A000D0B92B68039A1344022B2B6011D93E8826
:10B2B000023B76BAB6B29E420BD13246B91C04F0BC
:10B2C000B8FF30B9022E04D92B689A1E2A60FC54AC
:10B2D0000124204605B0F0BD4FF0FF34F9E700BF70
:10B2E0003F580020425C00202DE9F04F0121A9B019
:10B2F0009F4806F0DCFF06229E499D4806F0CAFFE3
:10B3000005219B4806F0CFFF4FF00009484602F0A8
:10B3100051F900268046DFF860B2984B3146484626
:10B320001D68FDF7EFFA07A9C0B2FFF743FB04461B
:10B3300020BB202301460DEB0302079805F08CF893
:10B34000089B8F4A934211D1FDF7E2FC4023074648
:10B35000079A009308A918AB2046CDE9024401944E
:10B36000FDF7E2FA05463846FDF7E2FCDBF800306F
:10B370000799AB4217D0084605F06DF88EB1B9F1C8
:10B38000000F0CD005217A4806F095FF012178487E
:10B3900006F095FFFFF742FD29B0BDE8F08FB146FA
:10B3A000B4E70126B9E710AA08A805F0F2F882462A
:10B3B000079805F050F814216D4806F078FF052233
:10B3C00070496B4806F066FF4946694806F049FF38
:10B3D000B8F1010F0C9C09D104F01005002E53D0D8
:10B3E000002D72D12F462C462B4653E0B8F1020FA8
:10B3F00004F0100411D1002E3AD1002C00F0A680E8
:10B4000000252F462C4609225F49594806F042FF85
:10B410000121574806F067FF49E0B8F1030F10D14A
:10B42000002EEAD0002C00F097805849072250489F
:10B4300006F030FF01214E4806F055FF092254491D
:10B440001AE0B8F1040F0FD1002ED6D13546374699
:10B45000002C7ED006224F49454806F01BFF0121F3
:10B46000434806F040FF24E0002C2ED12546B9E7E2
:10B47000002C75D0072245493D4806F00BFF0121FD
:10B480003B4806F030FF20E0002D6CD135463746B2
:10B4900044460123082240493548059306F0FAFE48
:10B4A0000121334806F01FFF059B002BABD1002C78
:10B4B000D0D147B1354907222D4806F0EBFE0121D6
:10B4C0002B4806F010FF002DB8D13449042228483B
:10B4D00006F0E0FE3146264806F0C3FEBAF1000F42
:10B4E00009D104222E49224806F0D4FE2022204809
:10B4F00010A906F0C6FE07222A491D4806F0CAFE1A
:10B50000BDF83630402101939DF83530264A00932E
:10B5100018A89DF8343000F061FD0E9B4BB1421E1F
:10B520003E2A06D818ACC0F14001204A204400F061
:10B5300055FD18A805F0E8F818A902460C4806F0D1
:10B54000A9FE14210A4806F0BAFE17E72546274649
:10B550009FE7012433469DE7012523462F4699E7BF
:10B56000254601273FE73546374644464BE700BFAF
:10B5700054520020BA3701000800002004000020C7
:10B580003DB8F39621340100D2370100C1370100E4
:10B59000E3370100DC370100C9370100ED37010056
:10B5A000F2370100F7370100FF3701000B380100C7
:10B5B0002DE9F0430B4600240121D9B008AFC7E9BB
:10B5C00000448DF817400246CDE90144009134A8AB
:10B5D0000421069406F02FFB214618221EA805F030
:10B5E000CCF8454B0DF117081A9307231B93434BD7
:10B5F0000222CDE91C38424B1AA91F930423209341
:10B60000404B34A8CDE9213706AB04F0EFFF0446E8
:10B6100000286FD17B68202B6CD1DFF8EC900121E2
:10B620002046FDF76FF907A90646C0B2FFF7C2F939
:10B63000054600B332464521344804F0FFFEC4B14C
:10B640004521334804F0FAFE05240A21314806F06A
:10B650002EFE022230492F4806F01CFE21462D48BE
:10B6600006F0F5FD0A212B4806F029FEFFF7D6FB70
:10B6700026E00124D3E72023014612AA079804F00C
:10B68000EBFE129B4B451ED007990AAA12A804F0A4
:10B6900080FF0546079804F0DEFE002DCFD1202262
:10B6A00039680AA805F037F80028C8D1204698F86C
:10B6B000001001F0FFFF04460028C6D1FFF714FE7A
:10B6C00059B0BDE8F083FDF723FB40230646CDE9E2
:10B6D0000255079A0195009312A924AB2846FDF75D
:10B6E00023F905463046FDF723FB0C4B1B68AB42A4
:10B6F000CAD0A4E70324A8E70F380100DB1F01002C
:10B70000F23701002F1F01003DB8F39617380100F2
:10B710003C38010054520020883701000800002006
:10B72000002307B502210093044A4FF4D473044860
:10B7300006F0E4FD03B05DF804FB00BF9656002060
:10B740005452002007292DE9F74F044640F2FB80B0
:10B75000037813F0050F40F0F6804388A1F1080547
:10B760005BBA9BB2AB42C0F0EE80834B186083881B
:10B770005BBA8380FFF7D4FFA088012840F0E68001
:10B78000E37904F10800012B12D0062B16D0002B10
:10B7900040F0EC8023785A0704D103B0BDE8F04FA5
:10B7A000FFF7A2BD294603B0BDE8F04FFFF700BF89
:10B7B000294603B0BDE8F04FFFF710BC23785B07C4
:10B7C00002D00820FFF7CAFBFEF736F80121074632
:10B7D0006A4806F06CFD06226949684806F05AFD81
:10B7E0000221664806F05FFD0025DFF898910421EC
:10B7F000624806F05CFD002847D0052262495F4898
:10B8000006F048FD002840D029465C4806F029FD96
:10B8100000283AD005225D49584806F03BFDA0B308
:10B820000221564806F03FFD78B30026534CDFF85E
:10B8300060A1DFF860B122E004225146204606F004
:10B8400029FD10B33146204606F00BFDE8B1314624
:10B850002846FDF757F801A9C0B2FFF7ABF88046BC
:10B86000C8B102224946204606F014FD68B141469F
:10B87000204606F0ECFC40B1002E43D10126032106
:10B88000204606F014FD0028D6D1FFF749FF02201C
:10B89000FFF764FB55E004225946204606F0FAFC07
:10B8A00090B1019B2046996806F0DBFC60B10F2245
:10B8B0002046394906F0EEFC30B106EB4501204642
:10B8C000013106F0CEFC18B9019804F0C4FDDCE7A4
:10B8D000019804F0C0FD0321204606F0F0FC00288A
:10B8E000D3D0002ECAD00221244806F0E4FC002860
:10B8F000CBD017F8353043B90421204806F0DFFCDF
:10B900000028C2D08DB9012571E70E2223491B48BA
:10B9100006F0C0FC0028B8D03B1D53F8351017487E
:10B9200006F09FFC0028E7D1AFE70221134806F09C
:10B93000C2FC0028A9D00121104806F0C0FC002854
:10B94000A3D0FFF76BFA03B0BDE8F08F70B9E379CD
:10B95000012B0CD0052B09D1FFF700FB4FF4005051
:10B96000002106F002FE0120FEF7E2FD082003B0F0
:10B97000BDE8F04FFFF7F2BA9C520020545200206D
:10B98000BA3701008837010021340100683801000E
:10B99000ED370100883801006E3801007E38010063
:10B9A00001232DE9F34100240546264FDFF8988056
:10B9B0003B70264B264E009418603B7813B902B0BA
:10B9C000BDE8F081234BC4F58061C3F80086C3F85D
:10B9D0000486C3F80886C3F80C86C3F81086C3F83B
:10B9E0001486C3F81886C3F81C862B6801AA013197
:10B9F000301998470028019B01DC002BDDD004445E
:10BA00002BB940F201439C42D7D10024D5E73378CB
:10BA1000062B09D17378092B0BD1002300936946BB
:10BA2000A01EFFF72DFC04E0042B02D17378142B29
:10BA3000F5D00128E9D1009907480239FFF782FEC5
:10BA4000E3E700BF3E5800203546526EA05200206A
:10BA5000405C0020008001504158002030BFFFF7BB
:10BA6000FDBF00BF074A936893F90E10002907DB5A
:10BA7000526993421FBF044A536843F08053536096
:10BA8000704700BF8853002000ED00E0154B9A6A14
:10BA900012F0007F9A6A14BF1E201D2012F0807FD2
:10BAA0009A6A18BF1F2012F4801F9A6A18BF0220DA
:10BAB00012F4002F9A6A18BF212012F4802F9A6A7C
:10BAC00018BF222012F4003F9A6A18BF232012F4F4
:10BAD000803F9A6A18BF24206FEA02426FEA12423E
:10BAE0009A62704700ED00E010B5194B0246986A63
:10BAF0009C6A10F4805F14BF1720162014F4006FA6
:10BB00009C6A18BF1820A40509D5986B986A000490
:10BB100004D51AB19A6A22F400429A6219200C4B99
:10BB20009A6A12F4806F9A6A18BF1A20D2050CD450
:10BB30009B6A13F4005F18BF1C20054A936A43F404
:10BB40007F43936200230B7010BD1B20F5E700BFFD
:10BB500000ED00E010B51C4B0246986A9C6A10F09C
:10BB6000100F14BF1120102014F0080F9C6A18BF8A
:10BB70001220A40709D5586B986A000604D51AB19B
:10BB80009A6A22F080029A6213200F4B9A6A12F08E
:10BB9000010F9A6A18BF142012F0200F9A6A18BF7A
:10BBA0001520D40658BF9B6A074B9A6A920642BF7B
:10BBB0005A6A22F400525A629A6A42F0FF029A626A
:10BBC00000230B7010BD00BF00ED00E070B5444BCA
:10BBD00006465B6800258AB0C3F3080385F3118825
:10BBE000BFF36F8F02F07F40B0F17F4F11D102F0B1
:10BBF0000C0008280DD010074CBF0E46012500226E
:10BC0000033B8DF80720032B05D8DFE803F01E5C0B
:10BC100060592E46F3E700249DF807309BB9202297
:10BC2000314602A804F09EFD099B002D53D0C3F3BA
:10BC3000080222B96FEA53236FEA4323099320468F
:10BC400002A904F025FD0AB070BD254BDA6A910700
:10BC5000E1D4DA6A002ADEDBDA6A5200DBD55A69FF
:10BC6000B16942F480725A61BFF34F8FBFF36F8F97
:10BC70005A6931F8021C22F480725A61BFF34F8F67
:10BC8000BFF36F8F4DF60272914209D09A6AD2B219
:10BC900042B101200DF10701FFF75CFF0446BBE74D
:10BCA0003468B9E79A6A12F47F4F05D001200DF18C
:10BCB0000701FFF719FFF1E79B6AB3F5803FAAD3AD
:10BCC000FFF7E4FEEAE700200DF10701E4E70020BA
:10BCD0000DF10701EDE723F4FF7323F00103ADE756
:10BCE00000ED00E0064B5A6942F010025A615A69B1
:10BCF00042F480625A615A6922F008025A61704720
:10BD000000ED00E0EFF30880EFF3098101B5724622
:10BD1000FFF75CFF01BD00BF002080F31488BFF374
:10BD20006F8F002080F30A8880F30B880F4880F320
:10BD3000088801F019FD00200D490860BFF34F8FFE
:10BD400000F01AF8202080F311880A484FF40061AF
:10BD5000401880F30988EFF314800221084380F330
:10BD60001488BFF36F8F00F0C3F80000D891002053
:10BD700094ED00E09860002072B6002383F31388EE
:10BD80004FF0FF300C4A03F120010133102B42F831
:10BD90002100F8D100234FF0FF30074A03F1600182
:10BDA0000133102B42F82100F8D162B6BFF34F8F58
:10BDB000BFF36F8F704700BF00E100E0084B9B6846
:10BDC00083420BD1EFF3058343B1064B5A6842F02F
:10BDD00080525A605A6A22F400425A6203F088BACA
:10BDE0008853002000ED00E013498A684FF03000CE
:10BDF0001044EFF3098C80E8F01F202080F31288B4
:10BE0000BFF36F8F0D4F4FF000664A698A603E6046
:10BE1000506F0023536780F3118802F1300090E8DF
:10BE2000F01F8CF3098802F1000004B504F045FC12
:10BE3000BDE80440704700008853002004ED00E096
:10BE40001EF0040F0CBFEFF30880EFF30980816947
:10BE500011F8021C0229FFD001B5724604F01EFC45
:10BE600001BD00BF40B2002807DB01234109034A9E
:10BE700000F01F00834042F82130704700E100E0ED
:10BE800040B200280CDB01220649430900F01F00E4
:10BE90008240203341F82320BFF34F8FBFF36F8FD1
:10BEA000704700BF00E100E0054B420953F8222033
:10BEB000012300F01F0003FA00F01040704700BF9C
:10BEC00000E100E040B2002801F10101ACBF00F147
:10BED0006040064B4FEA4111C9B2ABBF00F561406B
:10BEE00000F00F0080F800131954704714ED00E0C3
:10BEF0000B4A08B50B4B22F07F029A60BFF34F8FBD
:10BF0000BFF36F8FD3F8882022F47002C3F8882023
:10BF100002F010FD03F0FAFA00F042F802F04AFDD8
:10BF20000082000000ED00E042F8203C009B0B493D
:10BF300042F81C3C019B21F0010142F8183C029B95
:10BF400042F8081C42F8143C4FF0807342F8043C5D
:10BF50000023203A02654367704700BF7902010061
:10BF600000B5094B0E4698601546436E83F30B8867
:10BF70002C4686F309880020044B98472046002170
:10BF800000220023024C204788530020C3060100F2
:10BF9000790201001022014B1A61704700ED00E0A8
:10BFA000002320210348C2180133412B82F80013DB
:10BFB000F9D1704700E100E008B5EFF30583064AC8
:10BFC000103B02EBC30152F8330049688847BDE8D3
:10BFD0000840FFF747BD00BF182701000CB410B59B
:10BFE00086B009B90DF10B000024CDE9040109ABBD
:10BFF000089A009404A905480393FEF777F8049B78
:10C000001C7006B0BDE8104002B070478D070100FB
:10C010000122024B0020C3F84025704700900350D6
:10C0200020B1034B800143F001031847704700BF64
:10C03000102A0100BFF34F8F0549064BCA6802F46E
:10C04000E0621343CB60BFF34F8F00BFFDE700BF3B
:10C0500000ED00E00400FA05084B70B5C31A0D4668
:10C0600007499B10044659434022064804F0A4FBAC
:10C070002B4601462046BDE870401847B8520020C4
:10C08000B76DDBB68C260100402373B50B4C0093D3
:10C09000041B0B460D460A49A41061430646094A93
:10C0A000094804F0B4FB011E05DA30462B4602B005
:10C0B000BDE87040184702B070BD00BFB852002004
:10C0C000B76DDBB6770801008C26010010B5EFF3E1
:10C0D0001184202383F31288BFF36F8F074A1368FC
:10C0E00023F00201DB07116002D4012005F06CFC93
:10C0F00084F31188BFF36F8F10BD00BF0853002079
:10C1000070B50022012104460520FFF7DBFE0F4831
:10C1100001F050FC0E4B984215D101F05BFC2669F2
:10C120000C49304604F001F900280BDB0125356489
:10C130002469084904F11C0004F0F7F8002801DB29
:10C140000020E56470BD6FF00400FBE751C2000001
:10C150000000AD0BD82C01001FB500220123CDE952
:10C1600002236B46084ACDF800D0CDF804D004F085
:10C170007BFB002805DB4FF480420023684602F079
:10C18000BFFD05B05DF804FB950801000C22104BC3
:10C19000014602FB0033002030B4D3E90E5298630D
:10C1A000EFF31180202484F31288BFF36F8F1C6C8F
:10C1B00004F0C00444F002041C6480F31188BFF34F
:10C1C0006F8F1DB12B4630BC0248184730BC7047FA
:10C1D000B85200208C26010010B4EFF31182202306
:10C1E00083F31288BFF36F8F1748016841F0020490
:10C1F0000460C80707D482F31188BFF36F8F012052
:10C2000010BC01F0FBBB4FF05021D1F80C04D1F869
:10C210000C14C907EFD5EFF3118083F31288BFF335
:10C220006F8F0A490B6C03F0C00343F002030B64E9
:10C2300080F31188BFF36F8F82F31188BFF36F8F84
:10C24000002010BCFFF7A2BF08530020B852002006
:10C2500010B1012804D07047034B1B6C5B0701D160
:10C26000FFF794BF704700BFB85200202DE9F0419E
:10C27000012207463649D1E8EF3FC1E8E02F002808
:10C28000F9D133B9334934484B60CB608A6004F04C
:10C290005FF87B1E012B2BD8012F07D14FF05023C5
:10C2A000D3F81C3403F00303022B21D006F0EDF881
:10C2B0000546F8B9294B1B78E3B14FF05023022211
:10C2C0000646C3F808234FF05024DFF89480D4F8D2
:10C2D0001824D4F81834D20315D503F00303022B25
:10C2E00001D0012F0FD16DB386F31188BFF36F8F8B
:10C2F000BDE8F081EFF31186202383F31288BFF3AA
:10C300006F8F0125DFE7C5B1304604F0EEF9D4F8B0
:10C310001835DBB2012BDAD1D4F80421002AD6D0AB
:10C320000022C4F80421D4F804210222C4F81825FC
:10C330002022C8F88021A360C9E70021212006F04F
:10C3400014F9E4E74FF050230222C3F80423CFE7A7
:10C35000B4520020A4520020D45200209560002046
:10C3600000E100E0C3780F2B14D9C96B0B480B0E0A
:10C3700013708B0200EA911003F47C030906034357
:10C3800001F0FE4110680B43054901400B430020BA
:10C39000136070476FF08500704700BF00FF030017
:10C3A000FF000080024B0B6001231360704700BF49
:10C3B0000C53002000487047FC2C010010B50122EE
:10C3C0000648114606F055F805F065FB044C206060
:10C3D00005F05EFB6060002010BD00BF145300201C
:10C3E0000C53002070B50C46154605F051FB29464C
:10C3F0000646204604F0CEFA08B3B4FBF6F306FB7B
:10C400001343E3B9B5FBF6F306FB1353BBB9AE42D6
:10C4100001D9002070BD4FF0FF324FF0FF330948C3
:10C4200002F06EFC05F034FB0646204601F00EFFDC
:10C43000AD1B3444F9D1034802F02EFCE9E76FF05C
:10C440001500E7E714530020F8B50E4619463046AC
:10C4500017461C4604F09EFA08B346EA040515F098
:10C4600003051CD1A4B14FF0FF324FF0FF330D484C
:10C4700002F046FC24F00304A54206EB050009D1B6
:10C48000094AD2F80034DB07FBD5064802F004FC69
:10C490000020F8BD795901F0F7FE0435ECE76FF0A4
:10C4A0001500F6E714530020009003500048704731
:10C4B0007C2D010038B545682B69B3B1103528468D
:10C4C00001F0A0FD044680B90146284601F068FD50
:10C4D000084B98420BD122462846074901F048FDF7
:10C4E000224605210D20FFF7EDFC002038BD6FF03E
:10C4F0000400FBE70000AD0BFDC40000430970B56C
:10C5000007D10B4B596821B101250C68094E8540B4
:10C5100001B970BD8A682A4002D030464B689847FE
:10C520001CB1236821461C46F2E72346FAE700BF08
:10C5300044530020A02601002DE9F04340F20635C7
:10C540004668D00648BF0320337B02EA050558BF82
:10C55000C2F3401087B001F01F07B5F5837F144682
:10C5600047EA43178DF8030042D00FD8062D18D0A4
:10C5700007D8B5B1022D3DD06FF0150007B0BDE86A
:10C58000F083B5F5807FF7D101250AE040F2022261
:10C59000954231D0B5F5407F30D0B5F5007FEBD175
:10C5A00002250123220303FA01F129D5736899605A
:10C5B000326952BB07F01F037F0973D13B4A84F4F1
:10C5C000803102EB8302D2F80032C1F30041C4F3A0
:10C5D000404423F4E16344EA410423F007031C438D
:10C5E00044EA800444EA0524C2F800420020C5E77A
:10C5F0000725D6E70425D4E70525D2E70325D0E7AC
:10C60000630344BF7368D960D2E7103639463046B9
:10C610000DF1020201F0B2FC14F4403F80460CD14F
:10C620003946304605F02AFA214B9845DED130468E
:10C630009DF8021001F0F0FCD8E74FF0000901ABC3
:10C640003946304603AACDE90439CDE90199CDF840
:10C650000C9001F067FB164B98428DD114F4003317
:10C6600015D09DF8033084F48034C4F300448DF871
:10C670000E3039464B46304603AA8DF80C508DF8E3
:10C680000D4001F0FDFB0A4B9842CDD074E7CDE997
:10C69000043339460DF10303304603AA039301F036
:10C6A00041FBF0E7803352F82330FFDE0025845051
:10C6B0000000AD0BF0B5406801F01F04057B87B0AA
:10C6C00044EA45140569002D5FD0B2F5001F00F162
:10C6D000100506D12146284605F0D2F9002007B002
:10C6E000F0BD0027B2F5800F01AE0197776037D11A
:10C6F000B3F1007F14BF052304238DF80430002319
:10C70000CDE904630393836823FA01F111F0010179
:10C7100018D1B2F1A07F15D104F01F03620903F113
:10C72000800338D11D4A52F82330DB070AD40DF1BB
:10C73000030632462146284601F020FC184B984259
:10C7400019D002962146284603AA01F0EBFA154BB0
:10C7500098421DD101222146284601F069FCBDE71F
:10C76000B3F1C06F05D0B3F1007F14BF01230223E2
:10C77000C3E70323C1E73146284601F053FC094BC8
:10C780009842DED06FF00B00A9E76FF08500A6E7B6
:10C790006FF01500A3E751F82330FFDE0025845029
:10C7A0000400AD0B0000AD0B2DE9F04F002540F269
:10C7B000FF164D4FDFF834C1DFF834E1EBB2994298
:10C7C00002D80020BDE8F08F50F8254014F4804FC7
:10C7D000C4F3C328C4F3080374D1240EB34208BFC2
:10C7E0004FF0FF3317F808A00C2C6ED8DFE804F0E8
:10C7F000070D1316192A166D6D6D6D305C00C2F8A9
:10C800000C355C1C53D10135D8E7C2F814355C1CDB
:10C81000F9D0002454E0C2F80835F2E7C2F8103528
:10C82000F5E75C1CC2F80835EDD000245FEA531828
:10C830004ED14FF00109DFF8B48009FA03FBC8F8C4
:10C840000CB010E05C1CC2F80C35DCD00124EDE724
:10C85000C2F80835BAF1000FD9D15C1CD3D000243E
:10C860004FF0060AA14650F825B00BF40048B8F185
:10C87000000F1CBF4FF00009012403F01F085B09E3
:10C880002CD10CEB8808D8F80032CBF3412B03EA0B
:10C890000E0343EA8B0343EA0A2343EA090343EA0C
:10C8A0004403C8F80032AEE7C2F80C35D2E75C09A1
:10C8B00011D10124DFF8348004FA03F9C8F8089094
:10C8C000A146D0E76FF015007CE76FF0850079E7AF
:10C8D0000023DB60FFDE00239B60FBE7002308F101
:10C8E000800853F82830F5E7D4380100002584503B
:10C8F000F0F8FCFF2DE9F04104460D46476805F0CD
:10C90000C4FD4FF0200888B9264B1B7873B164260C
:10C91000606804F0C5FCF0B9012004F0F5FF013EA9
:10C92000F6D10021212005F020FEF0E7EFF311867B
:10C93000314688F31288BFF36F8F606804F0B0FC53
:10C94000A8B986F31188BFF36F8FEFE786F31188DC
:10C95000BFF36F8FE5E7EFF31186314688F3128856
:10C96000BFF36F8F606804F09BFC0028EED0BB69BA
:10C9700000201D706368BA691B68C3F84425012252
:10C98000C3F84825C3F82001D3F82041C3F8580163
:10C99000D3F858019A6081F31188BFF36F8FBDE817
:10C9A000F08100BF95600020F7B505464268136925
:10C9B0001168C1F82435137D507D927D03431343E4
:10C9C000C1F86C356E68D6E9004313F0010348D016
:10C9D0002F6907F10C0000F0E7FF304B98425AD165
:10C9E000387B04F10C0204F5907104F08FFF387B62
:10C9F000012707FA00F000F0D1FF0823C4F8003542
:10CA0000B369C4F844350023C4F84835A760D4F8A6
:10CA10005831002BFBD00021C4F800156B6801AA27
:10CA2000DC68204604F085FB002805DB019B2268BA
:10CA300019791868FFF7B8FE08216A681368C3F807
:10CA40000015117A51B9D269C3F834250122C3F80F
:10CA50003825C3F81011D3F810111A60002003B064
:10CA6000F0BD0822C4F80025B269C4F84425C4F812
:10CA700048350123A360D4F82031002BFBD00023DC
:10CA8000C4F82031D4F820310123E3604FF48073DF
:10CA9000C4F80433BBE76FF00400E0E70000AD0B1F
:10CAA0002DE9FF4105690646D0F80480A86C2B6D7E
:10CAB000002835D1002B53D0B8F830406A6C9C4226
:10CAC00028BF1C46EF6CEB6C53B1296D41B107F0E8
:10CAD0006041B1F1005F03D0082C28BF08246F6EBD
:10CAE00000926A6CAC651AB1AA6C002A18BF224683
:10CAF000CDE901271BB12B6D002B18BF2346002267
:10CB000069464046039301F077FD184B984229D0BF
:10CB10006FF00401304604B0BDE8F04104F051BDAF
:10CB2000696CEF6C0A46B8F83040ABB1834228BF5D
:10CB300003469C4228BF1C460029C4D001F0604334
:10CB4000B3F1005FBFD0082C28BF0824286E22460E
:10CB500003F008FE2A6EB6E7844228BF0446EBE7DE
:10CB60001946D7E704B0BDE8F08100BF0000AD0B67
:10CB70002DE9F04F8DB001934368884602938B886E
:10CB800005469904914604692DD44FF0FF324FF0C9
:10CB9000FF3304F1100002F0B3F8C4F80480D5F8B4
:10CBA00004B0D5F810A0DBF8083003939AF85D3094
:10CBB00023B1DAF80030984500F09D80B8F804E021
:10CBC0001EF4006F16D06FF0850623689B8813F45F
:10CBD000005304D1636004F1100002F05DF83046A8
:10CBE0000DB0BDE8F08FA369002BCED163689845E6
:10CBF000CBD1D4E71EF0090F02D06FF01506E4E7A1
:10CC0000CEF34513082BF8D1D8F800C08B4B9C45C8
:10CC1000F3D904AE0BF10C070FCF0FC697E80F0046
:10CC200086E80F00039B634528BF63469C46844B00
:10CC30009C4511D2834B9C4546D8834B9C4545D897
:10CC4000824B9C4544D8824B9C4543D88149824BBA
:10CC5000824A8C4588BF13461EF0020F09930EF0DE
:10CC6000040339D0002B14BF032302238DF828308E
:10CC7000CEF300138DF82930DBF800301EF0020FE0
:10CC8000D3F8082576484FF00103CEF340014FEA70
:10CC9000521625D1002E40F0CB809340C3609AF805
:10CCA0005D302BB1584601F06BFC00238AF85D30F3
:10CCB0002B4658466B4A04A901F02EFC6A4B984259
:10CCC00014D06FF0040680E7684BC5E7684BC3E7F4
:10CCD000684BC1E7684BBFE7003B18BF0123C5E7BE
:10CCE000002E40F0A78093408360D8E70123CAF864
:10CCF00000808AF85D30012384F85C30029B996BD8
:10CD00004A1C03D003F13C0000F0E8F8B9F1000F31
:10CD100068D1C4F834900023A36304F1480204F1FD
:10CD2000380104F1340004F077FB019B6064002BB0
:10CD300060D1E3630023236404F1500204F1400155
:10CD400004F13C0004F068FB002601213246E06457
:10CD50002663204604F097FB2846FFF7A1FE3246E3
:10CD60003346A06B83424DD100231946266CB14255
:10CD70004FD1934238BF134627464FF4FA524FF033
:10CD8000000802FB03F657F8203B4FF4004C1B68E9
:10CD90004146B6FBF3F640F2E730C8364FF47A72FC
:10CDA0000023E6FB0C01FBF771FB02460B463846FD
:10CDB00001F0A6FF024618B9266B16F1740F2FD1A9
:10CDC0000298C4F8588001F0DBFB6FF0730128462D
:10CDD00084F85D8004F0F5FB384601F0B7FF6FF092
:10CDE0007306F2E6D9F800306363002B93D0D9F8CC
:10CDF000043091E7019B1B68E363002B9AD0019BF1
:10CE00005B6898E7616B01EBC301496801330A4431
:10CE1000A8E7E06B00EBC100406801310344A6E7DE
:10CE2000002E3FF4D2AE0146286904F02CFBCCE67C
:10CE3000C960FFDE00239B60FBE700BF47E80100FD
:10CE400000127A00FF083D007F841E003F420F0061
:10CE50001FA107008FD0030048E8010090D0030015
:10CE600000258450E51501000000AD0B00093D00D0
:10CE700080841E0040420F0020A107000123F0B56E
:10CE800087B08DF80230022300248DF804306B4403
:10CE900003930F4601AB0DF1030104930546029184
:10CEA000059401F0BFF80C4B064698420FD1394665
:10CEB000284603AA00F036FFB0420BD028469DF862
:10CEC000031001F0A9F86FF0040007B0F0BD6FF097
:10CED0001200FAE72046F8E70000AD0B2DE9F0411B
:10CEE0000D46064604F0CEFD002207462946304690
:10CEF00001F09EF86B0905F01F0429D1174B03EBD5
:10CF00008404D4F80022164B134043F00C03C4F8F9
:10CF1000003204F0CCFB80463368DB597BB100273C
:10CF20003046294604F0ACFDD4F800220C4B3846BC
:10CF3000134043F00403C4F80032BDE8F08104F06C
:10CF4000B6FBA0EB08000628E6D96FF07307E7E709
:10CF50000023803453F82430FFDE00BF00258450C6
:10CF6000F0F8FCFF0123834070B5DC430B4AD2E8A4
:10CF7000EF1F01EA0405C2E8E65F002EF7D14FF487
:10CF8000803282400648C0F80823BFF35F8FBFF3AA
:10CF90006F8F0B4214BF0120002070BD545300203E
:10CFA0000050015070B40E4922F07F46D1E90034A0
:10CFB000D01AC31844F10004C1E90034A6F50013E7
:10CFC000B3F5400F09D2074B1B681A0A1B069C19C0
:10CFD000054B42F10005C3E9004570BC02F056BBA9
:10CFE000400200205853002048020020D9B10123FC
:10CFF0000D4A8340D2E8EFCF4CEA030CC2E8E1CF00
:10D000000029F7D14FF48033084A8340C2F8043333
:10D01000074BD3E8AF3FC340DB0742BF4FF40012DA
:10D02000044BC3F8002170475453002000500150B6
:10D030005053002000E100E00D4B1868010A000683
:10D04000BFF35F8F0B4BD3F80435181841F1000183
:10D05000B3F5801F0AD2084BD3E90023904271EB4D
:10D06000030303D210F1807041F10001704700BF4B
:10D070005853002000500150480200202DE9F04F85
:10D0800085B016461F4604469DF840A0FFF76AFF8C
:10D090000190FFF7D1FFB04271EB070352D23B4B37
:10D0A000301A67EB0101984271F100014DD2384B03
:10D0B00003EB0413D3E902239F4208BF964258D0E2
:10D0C0004FF48038334908FA04F8204626F07F4BA5
:10D0D000C1F8488304F0DFFA4FF00309584604F121
:10D0E0005005AD00ADB205F1502504F5A87305F566
:10D0F00080350293029A20F07F4341F82230C1F834
:10D100004483D1F80435244AC01A033820F07F4004
:10D1100090422ED9286868B1D1F80435A3EB0B00F2
:10D1200020F07F40B0F5000F039322D9204604F091
:10D13000B2FA039BBAF1000F07D109EB030009F122
:10D140000109D7E7BAF1000F09D06FF015052046A5
:10D150000199FFF74BFF284605B0BDE8F08F01238A
:10D160000E4AA340D2E8EF0F1843C2E8E10F0029AE
:10D17000F8D107490E982301C8500F9B01EB041208
:10D180000025C2E902675360E1E700BF01008000AB
:10D190003002002000500150FDFF7F00505300205E
:10D1A0007FB500254FF0FF304FF0FF31194C1A4B7F
:10D1B0000226C4F80833C4F84833184BC4F808559D
:10D1C000C3E902014FF480334FF40012C4F8043372
:10D1D000134B0121C4F804631520C3F880212A46AB
:10D1E000FEF770FE1520FEF73DFE01230D4AA360F9
:10D1F000236013600C4B0D4A009328460023CDE9B1
:10D200000155FFF73BFF3046FFF730F8284604B0E2
:10D2100070BD00BF0050015003000F00300200201D
:10D2200000E100E054530020A5CF0000FFFF7F0085
:10D230002DE9F7432E4BD3F8042390070BD5D3F8F1
:10D24000042142B10022C3F804212A4AD3F8043150
:10D25000136801331360264AD2F80433D90326D564
:10D26000254BD3E8EF1F21F00100C3E8E40F002CA9
:10D27000F7D1CB0702D4D2F84031C3B100251C4C02
:10D28000C4F84051D4F84031FFF7D6FEEFF31182D5
:10D29000202383F31288BFF36F8F184BD3E9026703
:10D2A000B042B94106D282F31188BFF36F8F03B049
:10D2B000BDE8F0834FF0FF38D3E900104FF0FF399D
:10D2C0001D60C3E902894FF48033C4F84833C4F8C1
:10D2D0004051D4F8403182F31188BFF36F8F002999
:10D2E000E5D0009032463B4628468847DFE700BF3E
:10D2F00000500150585300205053002030020020AD
:10D3000030B5431C124C85B005D08442A8BF0446FA
:10D31000012CB8BF0124FFF78FFE0E4B0C4DD3E953
:10D320000013401AB0F5000F0FD22218AA4228BFEE
:10D330002A46002052180849CDE90100009143F126
:10D340000003FFF79BFE05B030BD2A46F1E700BFA2
:10D35000FFFF7F0040020020A5CF000008B5FFF7C7
:10D360006BFE024B1B68C01A08BD00BF40020020C4
:10D37000012310B5074C15206360FEF781FD4FF4C3
:10D380000012054BC4F80833C4F84833034BC3F804
:10D39000802110BD0050015003000F0000E100E0AB
:10D3A00040EA0103C3F30E0330B58BB940F2151503
:10D3B000094CC90BC0F3C730994201D1002030BDE0
:10D3C000C218D2B202F5C07244F822500133F3E71A
:10D3D0006FF01500F3E700BF00300050054B1B68ED
:10D3E000DA6AB2F5807F01D8DB6918476FF00D006B
:10D3F000704700BFDC910020014B1B681B6A184777
:10D40000DC910020014B1B685B6A1847DC9100200F
:10D4100010B4034C2468E469A44610BC604700BF04
:10D42000D89100202DE9F043234885B004F043F95A
:10D4300000250446204B214ED3F83880DFF8809039
:10D44000A84503D8002005B0BDE8F083636A96E8DC
:10D4500007001F6801AB83E807000C221946384615
:10D4600003F059F988B987B1636A21691B681A69A1
:10D4700091420AD19A69A169914206D8E169914223
:10D4800003D962695B699A430CD0276A77B10D486A
:10D4900002F0E5FE002383F31188BFF36F8F0423AE
:10D4A000184602DFE36801351C44C9E7484602F02C
:10D4B000D6FE636A1F60F5E700840000F0290100D2
:10D4C00022390100F938010030B5816885B0103982
:10D4D00021F00704054603F008F8102201466846CB
:10D4E00003F04BF910226846064903F03BF910237C
:10D4F0006A462146284602F0C4FF003818BF0120C2
:10D5000005B030BD5E2F010030B50D46816887B093
:10D51000102302AA1039044602F09EFF002802DA06
:10D52000012007B030BD1022204602A904F0EDF81A
:10D5300000283AD110221E4902A803F0ECF8002876
:10D540000CBF012302232B70204604F0CAF80123EC
:10D5500001460DF10702204602F07EFF0028DFDBC6
:10D560009DF80730204603F00F021B096A702B71EB
:10D5700001220DF1070104F0C8F810B96B78042BF3
:10D5800003D901236B7000232B71A2682046183A3F
:10D5900022F00702083AA91C04F0CAF80028BFD1FB
:10D5A0002046E91C04F01DF9BBE70323CBE700BFCD
:10D5B0005E2F0100F0B5354F85B04600054669463F
:10D5C00057F8260004F013F9044610B1FF2005B007
:10D5D000F0BD013657F8260002A904F008F9012829
:10D5E00037D12A4649212A4802F028FF294B8DF8D5
:10D5F0000C40029300229DF800609DF80870264CB4
:10D600003146207804F073F850B33946607804F05E
:10D610006EF828B3A378042B03D09DF80310994229
:10D620001ED1E378042B03D09DF80B10994217D13B
:10D630002379042B10D16279022A1DD1174B184887
:10D640002A46492102F0FAFE6079831E022BBED9D8
:10D65000BCE70028CED0B9E79DF802109942EAD085
:10D660000132032A04F10604CAD10E482A46492190
:10D6700002F0E4FE0120AAE7032A05D00A4B0B4979
:10D68000042A08BF0B46DAE7094BD8E7902E0100C1
:10D6900078390100030103030D3A01005A390100F2
:10D6A000C3390100E73901005F3901007139010018
:10D6B0005539010013B50C4B0C4603EBC00001A912
:10D6C0000079FDF777F9014660B9221E18BF0122E3
:10D6D000019804F0B9F80446019802F0BCFE204617
:10D6E00002B010BD0124FAE7902E010008B5EFF357
:10D6F0001083012B0C4A07D1126ABFF34F8F511CC4
:10D700004A424A41104608BD04F0DCF800B172B646
:10D71000126ABFF34F8F531C5A425A4104F0D2F899
:10D720000028EFD062B6EDE70080FF0008B5EFF308
:10D730001083012B0B4A06D1D269BFF34F8F02F041
:10D740000102104608BD04F0BDF800B172B6D269FE
:10D75000BFF34F8F02F0010204F0B4F80028F0D0BC
:10D7600062B6EEE70080FF0010B504F0ABF830B110
:10D770004FF050230022C3F81421C3F8182104F0FD
:10D78000B0F828B101225F4BC3F8382AC3F87825D6
:10D790004FF47F02D2F83031D2F83421BFF34F8FEB
:10D7A000C3F30B03092B05D1012A1EBF0122554BE0
:10D7B000C3F8782504F095F818B10E22524BC3F83F
:10D7C000E42E04F07FF830B100224E4BC3F80C2752
:10D7D0000122C3F810270022D30003F57F03D3F8FA
:10D7E0000013BFF34F8F013108D0D3F8001301327B
:10D7F000D3F80433B2F5807F0B60EDD1EFF31084E2
:10D80000FFF794FF00284DD0BFF34F8F3F4BD3F865
:10D810000024012AFBD1C3F80425D3F80024012AEF
:10D82000FBD1012C03D004F04DF800B172B6FFF724
:10D830007DFF58B1364AD36923F00103D361BFF3AA
:10D840004F8F324AD2F80034012BFBD1FFF74EFF45
:10D8500068B12F4A136A23F0FF0343F020031362D9
:10D86000BFF34F8F294AD2F80034012BFBD1012C92
:10D8700003D004F027F800B162B60022234BC3F8AE
:10D880000425D3F80024012AFBD1BFF34F8F21498F
:10D89000214BCA6802F4E0621343CB60BFF34F8FA1
:10D8A00000BFFDE7FFF722FF0028ADD1194AD2F8EB
:10D8B0008C3043F44063C2F88C304FF47F03D3F8CC
:10D8C0003021D3F83431BFF34F8FC2F30B02092A52
:10D8D00016D1013B022B02D8104AD35C83B10C480D
:10D8E0000F490368094A8B420CBF5A230023C2F830
:10D8F000103EC36A8B420CBF5A230023C2F8003E7D
:10D9000010BD00BF0040005000A003500090035025
:10D910000080FF0000ED00E00400FA051F3A01005E
:10D92000FA50FA5030B50468ACB1B4FA84F301226D
:10D93000C3F11F03DBB29A4024EA0202D0E8EF5F92
:10D94000A54204D1C0E8EC2FBCF1000FF6D1EAD11A
:10D9500002480B7030BD0248FCE700BF0000AD0B71
:10D960000200AD0B10B50368CB40DB0710D40123D8
:10D970008B40026843EA0201D0E8EF4F944204D1A1
:10D98000C0E8EC1FBCF1000FF6D1F2D1014810BD88
:10D990000148FCE70000AD0B0400AD0B014BC3F8E0
:10D9A00004057047007001500146014800F0B6B808
:10D9B000E8000020044B1A7922B9012218601A717C
:10D9C00002487047024870475C5300200000AD0BCE
:10D9D0000C00AD0B08B5084B1B6833B10520FEF7F2
:10D9E00063FA10B90520FEF73DFA4FF050230122EB
:10D9F000C3F8182508BD00BF5C53002010B510B156
:10DA0000012847D010BD4FF05023D3F81814D3F895
:10DA10001824C90322D502F00303022B05D0012BE1
:10DA200002D0002003F079FF01234FF050220220A2
:10DA3000C2F8183508224FF48273002103F15023F5
:10DA400019601C68012402F150221460164A126801
:10DA500022B34FF05023C3F80403D3E7D3F81424C0
:10DA6000D207E1D5D3F81C2402F00302013A012ABF
:10DA7000D7D80D4A12681AB10222C3F80423C1E7AD
:10DA8000D3F80421002AFBD00022C3F80421D3F8E4
:10DA90000431B7E700224FF48073CEE71A68002AFA
:10DAA000FCD019601B68ADE75C530020F8B54FF05F
:10DAB000502301250026D3F80443174F04B9F8BDBD
:10DAC000B4FA84F0C0F11F00830003F580739BB2A9
:10DAD00003F1502305FA00F21968D2B224EA0204D5
